:020000040800F2
:10000000000002209D100008090F0008110F0008D1
:10001000190F0008210F0008290F00080000000038
:10002000000000000000000000000000E1430008A4
:10003000310F000800000000314600089946000812
:10004000ED100008ED100008ED100008ED1000089C
:10005000ED100008ED100008ED100008ED1000088C
:10006000ED100008ED100008ED100008ED1000087C
:10007000ED100008ED100008ED100008ED1000086C
:10008000ED100008ED100008ED100008ED1000085C
:10009000ED100008ED100008ED100008ED1000084C
:1000A000ED100008ED100008ED100008ED1000083C
:1000B000ED100008ED100008ED100008ED1000082C
:1000C000ED100008ED100008ED100008ED1000081C
:1000D000ED100008ED100008ED100008ED1000080C
:1000E000ED100008410F0008ED100008ED100008A9
:1000F000ED100008ED100008ED100008ED100008EC
:10010000ED100008ED100008550F0008ED10000874
:10011000ED100008ED100008ED100008ED100008CB
:10012000ED100008ED100008ED100008ED100008BB
:10013000ED100008ED100008ED100008ED100008AB
:10014000ED100008ED100008ED100008ED1000089B
:10015000ED100008ED100008ED100008ED1000088B
:10016000ED100008ED100008ED100008ED1000087B
:10017000ED100008ED100008ED1000080000000070
:08018000ED100008ED1000086D
:1001900010B5054C237833B9044B13B10448AFF3C1
:1001A00000800123237010BD6C00002000000000BF
:1001B000205D000808B5034B1BB103490348AFF3AA
:1001C000008008BD0000000070000020205D0008D5
:1001D00001F0FF01102A2BDB10F0070F08D010F8F8
:1001E000013B013A8B422DD010F0070F42B3F6D1FC
:1001F000F0B441EA012141EA014122F007047FF015
:1002000000070023F0E80256083C85EA010586EA6B
:10021000010685FA47F5A3FA87F586FA47F6A5FAA7
:1002200087F68EB9EED1F0BC01F0FF0102F00702B3
:1002300032B110F8013B013A83EA010313B1F8D15E
:100240000020704701387047002D06BF354603383F
:10025000073815F0010F07D1013015F4807F02BF78
:10026000013015F4C03F0130F0BC0138704700BFC9
:1002700053B94AB9002908BF00281CBF4FF0FF310D
:100280004FF0FF3000F088B9ADF1080C6DE904CEF5
:1002900000F006F8DDF804E0DDE9022304B0704761
:1002A0002DE9F047089D8E4604468846002B4AD12A
:1002B0008A42174662D9B2FA82F64EB1C6F12003DD
:1002C00001FA06F820FA03F3B74043EA0808B440FD
:1002D0004FEA174E1FFA87FCB8FBFEF1230C0EFB0A
:1002E000118843EA084301FB0CF29A4209D9FB1832
:1002F00001F1FF3080F0EA809A4240F2E780023953
:100300003B449A1AA3B2B2FBFEF00EFB102243EA62
:10031000024300FB0CFC9C4509D9FB1800F1FF329D
:1003200080F0D6809C4540F2D3803B44023840EABE
:100330000140A3EB0C0300211DB1F3400022C5E9ED
:100340000032BDE8F0878B4205D90DB1C5E9000147
:1003500000210846F5E7B3FA83F1002946D1734539
:1003600002D3824200F20581841A6EEB030201205F
:100370009046002DE5D0C5E90048E2E7002A00F0EC
:100380009080B2FA82F6002E40F0A4808A1A030C04
:100390004FEA174E80B2BCB20121B2FBFEFC0EFB4D
:1003A0001C2243EA024304FB0CF29A4207D9FB18D1
:1003B0000CF1FF3802D29A4200F2E080C4469B1A48
:1003C000B3FBFEF20EFB123340EA034302FB04F4DC
:1003D0009C4207D9FB1802F1FF3002D29C4200F286
:1003E000CA8002461B1B42EA0C40A5E7C1F1200669
:1003F0008B4022FA06F71F430EFA01F420FA06F3A7
:100400002EFA06FE4FEA1749234300FA01F81FFAB5
:1004100087FCBEFBF9F01C0C09FB10EE44EA0E440D
:1004200000FB0CFEA64502FA01F209D93C1900F1C5
:10043000FF3A80F09C80A64540F2998002383C4407
:10044000A4EB0E041FFA83FEB4FBF9F309FB13447B
:100450004EEA044403FB0CFCA44508D93C1903F103
:10046000FF3E80F08280A4457FD9023B3C4443EAB2
:100470000040A4EB0C04A0FB02EC64457346E1468B
:1004800062D35FD05DB1B8EB030264EB090404FAF8
:1004900006F622FA01F31E43CC40C5E900640021B0
:1004A0004FE7B1FBF2FC010C41EA0E4180B240EA99
:1004B00001423B4638463C46B846BE462026B1FB84
:1004C000F7F1A2EB080241EA0C4166E7014618E7A2
:1004D00010462CE7C6F120022EFA02F3B740B140D5
:1004E00020FA02F24FEA174E0A43B3FBFEF8BCB201
:1004F0000EFB1833110C41EA034108FB04F9B0402C
:1005000089454FEA104380B23ED9791808F1FF3C83
:1005100001D289451FD8A1EB0901B1FBFEF909FB06
:1005200004F80EFB191192B242EA0142424529D267
:10053000BA1809F1FF31C4D24245C2D2A9F1020171
:100540003A44BEE7F0459DD2BEEB02036CEB070CCC
:100550000138E14696E7A7EB09094944A8F1020CE6
:10056000B1FBFEF909FB04F8DBE773467FE7504671
:1005700066E70846FDE63B44023A33E7ACF1020C7D
:100580003B441CE749469CE7A1EB0901C446B1FB8B
:10059000FEF909FB04F8C4E7704700BF80B485B0DA
:1005A00000AFF860B9607A60FB68074A1A60BB6800
:1005B000064A1A607B6880221A6000BF1437BD4665
:1005C0005DF8047B704700BF88000020DC0000203D
:1005D00080B483B000AF78604FF06043D3F8803EC2
:1005E00003F00103002B13D04FF06043D3F8003E1B
:1005F00003F00103002B0BD000E000BF4FF060437D
:100600001B68002BF9D04FF060437A68D2B21A70A1
:100610007B6818460C37BD465DF8047B704780B593
:1006200086B000AFF860B9607A6000237B6109E0B2
:10063000BB685A1CBA601B781846FFF7C9FF7B6974
:1006400001337B617A697B689A42F1DB7B681846EB
:100650001837BD4680BD0000B0B58AB000AF00F0CD
:1006600047FD00F061F800237B602A4B1B6C294A90
:1006700043F080531364274B1B6C03F080537B6063
:100680007B6801F00FF8234B9B6823F4F813214A91
:1006900043F4002393601F4B1B6F1E4A43F44073C7
:1006A00013671D4B01221A6000F060F900F034F965
:1006B00000F0A6F8002236210F2000F0E7F903230E
:1006C000182208210B2000F00FFA07F12403002262
:1006D0001946124801F0A3FF97F82630002237216F
:1006E0000F2000F069FA0E4B07F108041D460FCDEC
:1006F0000FC495E8070084E8070007F1080300210C
:10070000184602F0C6FF0346064A136002F0BAFF1D
:1007100000BFFDE7003802403C0E474204030020C2
:10072000485D00086C03002080B594B000AF07F16D
:10073000200330220021184604F025FB07F10C03AA
:1007400000221A605A609A60DA601A610023BB6066
:10075000294B1B6C284A43F080531364264B1B6CB7
:1007600003F08053BB60BB6800237B60234B1B6896
:10077000224A43F480431360204B1B6803F48043F8
:100780007B607B6809233B624FF480337B620123EB
:100790007B630223BB634FF48003FB6304233B644E
:1007A000A8237B640223BB640423FB6407F12003BA
:1007B000184600F08BFF0346002B01D000F07CFAB6
:1007C0000F23FB6002233B6100237B614FF4A053A6
:1007D000BB614FF48053FB6107F10C030521184600
:1007E00001F0ECF90346002B01D000F065FA00BFE0
:1007F0005037BD4680BD00BF003802400070004049
:1008000080B590B000AF07F12C0300221A605A6047
:100810009A60DA601A610023BB623B4628220021FD
:10082000184604F0B0FA3A4B3A4A1A60384B0022A4
:100830005A60374B7F229A60354BFF22DA60344B87
:1008400000221A61324B00225A61314B00229A6118
:100850002F4801F0E7FC0346002B01D000F02CFAF2
:10086000002387F82C30002387F82D30002387F8E9
:100870002E300023BB630023FB6307F12C0300220F
:100880001946234801F04FFD0346002B01D000F02C
:1008900013FA012387F82830012387F82930012330
:1008A00087F82A30002387F82B3007F1280300222D
:1008B0001946174801F02FFE0346002B01D000F027
:1008C000FBF900233B7000237B700023BB700023E7
:1008D0007B600023FB6000233B6100237B610023DE
:1008E000BB610023FB61012387F820304FF4807344
:1008F0007B623B4600221946054801F0DFFE0346B5
:10090000002B01D000F0D8F900BF4037BD4680BDB4
:10091000040300200028004080B500AF114B124AAC
:100920001A60104B4FF4E1325A600E4B00229A606D
:100930000C4B0022DA600B4B00221A61094B0C228F
:100940005A61084B00229A61064B0022DA61054881
:1009500002F0BCFB0346002B01D000F0ADF900BF54
:1009600080BD00BF240300200044004080B58AB051
:1009700000AF07F1140300221A605A609A60DA602F
:100980001A6100233B613E4B1B6B3D4A43F004035D
:1009900013633B4B1B6B03F004033B613B69002378
:1009A000FB60374B1B6B364A43F080031363344BB9
:1009B0001B6B03F08003FB60FB680023BB60304BC4
:1009C0001B6B2F4A43F0010313632D4B1B6B03F08A
:1009D0000103BB60BB6800237B60294B1B6B284A6B
:1009E00043F008031363264B1B6B03F008037B6083
:1009F0007B6800233B60224B1B6B214A43F00203C0
:100A000013631F4B1B6B03F002033B603B68002228
:100A100020211C4800F02CFE00224FF400411A480F
:100A200000F026FE01237B610023BB610023FB61F4
:100A300007F114031946134800F07EFC20237B6164
:100A40000123BB610023FB6100233B6207F1140318
:100A500019460C4800F070FC4FF400437B61012301
:100A6000BB610023FB6100233B6207F114031946BD
:100A7000054800F061FC00BF2837BD4680BD00BFBF
:100A80000038024000000240000C024080B588B0EF
:100A900000AF0346FB710B46BB7113467B7107F138
:100AA0000C0300221A605A609A60DA601A61FB79BE
:100AB0003B73BB797B737B79BB730023BB610023E2
:100AC000FB6107F10C0300221946064801F02BFCDC
:100AD0000346002B01D000F0EFF800BF2037BD46E1
:100AE00080BD00BF0403002090B585B000AF044670
:100AF000084611461A462346FB710346BB710B4656
:100B00007B7113463B710023FB603B793B73BB79E0
:100B10007B737B79BB73FB79FB7307F10C030022BA
:100B20001946094801F0F7FC0346002B01D000F0FC
:100B3000C3F842F245320121034802F007F800BF32
:100B40001437BD4690BD00BF0403002080B58AB0B5
:100B500002AF7860396007F10C0300221946134890
:100B600001F07BFC07F10803002219460F4801F051
:100B700056FD3B7B1A467B7B1946BB7B00930B469D
:100B80000B49786804F09AF8BB7A1A467B7A1946C2
:100B9000FB7A03F5FA6300930B460649386804F0C4
:100BA0008DF800BF2037BD4680BD00BF0403002084
:100BB000645D0008745D000890B58DB000AF044618
:100BC000084611461A462346FB710346BB710B4685
:100BD0007B7113463B7107F1080328220021184658
:100BE00004F0D1F8FB793B72BB797B727B79BB72E5
:100BF0000023FB6000237B610023BB610023FB61BA
:100C000000233B6200237B623B7987F828304FF456
:100C10008073FB6207F1080300221946054801F0C2
:100C20004DFD0346002B01D000F046F800BF3437DD
:100C3000BD4690BD0403002080B582B000AF78604F
:100C400001224FF40041034800F012FD00BF0837B5
:100C5000BD4680BD000C024080B582B000AF786018
:100C600008490948FFF772FF0649084804F014F8DC
:100C70000549074804F010F84FF47A7002F055FD6A
:100C800000BFEDE7F0020020DC020020845D0008D8
:100C9000905D000880B582B000AF78607B681B680B
:100CA000044A934201D100F045FA00BF0837BD461F
:100CB00080BD00BF000C004080B400AF72B600BF22
:100CC00000BFFDE780B582B000AF00237B60124B10
:100CD0005B6C114A43F4804353640F4B5B6C03F429
:100CE00080437B607B6800233B600B4B1B6C0A4A94
:100CF00043F080531364084B1B6C03F080533B603C
:100D00003B6800220F216FF0010000F0EBFA00BFFA
:100D10000837BD4680BD00BF0038024080B586B0B0
:100D200000AF786007F1080300221A605A609A60E9
:100D3000DA607B681B68104A934219D10223BB60BA
:100D40004FF400737B6107F10803184601F088F93E
:100D50000346002B01D0FFF7AFFF084B01221A60BA
:100D600000220521292000F0BDFA292000F0D6FA42
:100D700000BF1837BD4680BD002800403C0E4742EA
:100D800080B58AB000AF786007F1140300221A60C2
:100D90005A609A60DA601A617B681B68194A93424C
:100DA0002BD100233B61184B1B6C174A43F40033D3
:100DB0001364154B1B6C03F400333B613B69002348
:100DC000FB60114B1B6B104A43F0010313630E4B86
:100DD0001B6B03F00103FB60FB680C237B610223A8
:100DE000BB610023FB6103233B6207237B6207F1A6
:100DF00014031946054800F09FFA00BF2837BD4686
:100E000080BD00BF004400400038024000000240A6
:100E100080B58EB000AF78600023FB620023BB6218
:100E20000023FB60334B1B6C324A43F0080313640E
:100E3000304B1B6C03F00803FB60FB6807F11002EA
:100E400007F114031146184601F0D8F83B6AFB621B
:100E5000FB6A002B03D101F0A9F8786304E001F0EC
:100E6000A5F803465B007B637B6B234AA2FB03234D
:100E70009B0C013BBB62214B214A1A601F4B40F285
:100E8000E732DA601D4ABB6A53601C4B00221A61CC
:100E90001A4B00229A60194B00229A61174801F000
:100EA00079FE034687F8333097F83330002B1BD197
:100EB000124801F0C9FE034687F8333097F8333003
:100EC000002B11D1322000F029FA7B680F2B08D8B3
:100ED00000227968322000F005FA0A4A7B68136024
:100EE00002E0012387F8333097F83330184638375B
:100EF000BD4680BD0038024083DE1B4370030020E6
:100F0000000C00400400002080B400AF00BFFDE7EB
:100F100080B400AF00BFFDE780B400AF00BFFDE7C5
:100F200080B400AF00BFFDE780B400AF00BFFDE7B5
:100F300080B400AF00BFBD465DF8047B7047000081
:100F400080B500AF024801F0FDFC00BF80BD00BFCE
:100F50000403002080B500AF024801F0E5FE00BFA9
:100F600080BD00BF7003002080B586B000AFF86080
:100F7000B9607A6000237B610AE0AFF3008001462C
:100F8000BB685A1CBA60CAB21A707B6901337B61B4
:100F90007A697B689A42F0DB7B6818461837BD4651
:100FA00080BD80B483B000AF78604FF0FF33184647
:100FB0000C37BD465DF8047B704780B483B000AF4A
:100FC000786039603B684FF400525A60002318463D
:100FD0000C37BD465DF8047B704780B483B000AF2A
:100FE0007860012318460C37BD465DF8047B7047D6
:100FF00080B485B000AFF860B9607A60002318460D
:101000001437BD465DF8047B7047000080B586B09C
:1010100000AF7860144A154BD31A7B617B693B6142
:10102000134B1B68002B02D1114B124A1A60104B54
:101030001A687B6813443A699A4207D203F0F2FEB9
:1010400003460C221A604FF0FF3309E0084B1B687F
:10105000FB60074B1A687B681344054A1360FB6802
:1010600018461837BD4680BD00000220000400006D
:10107000B80300206042002080B400AF064BD3F8D4
:101080008830054A43F47003C2F8883000BFBD467B
:101090005DF8047B704700BF00ED00E0DFF834D05E
:1010A000FFF7EAFF0C480D490D4A002302E0D4582F
:1010B000C4500433C4188C42F9D30A4A0A4C0023A2
:1010C00001E013600432A242FBD303F0B1FEFFF74C
:1010D000C3FA704700000220000000206C000020CE
:1010E000005E00086C00002060420020FEE7000067
:1010F00080B500AF0E4B1B680D4A43F400731360BC
:101100000B4B1B680A4A43F480631360084B1B684F
:10111000074A43F480731360032000F0D8F80F20CF
:10112000FFF776FEFFF7CEFD0023184680BD00BF17
:10113000003C024080B400AF064B1B781A46064BB9
:101140001B681344044A136000BFBD465DF8047B6E
:10115000704700BF08000020BC03002080B400AF2F
:10116000034B1B681846BD465DF8047B704700BF03
:10117000BC03002080B485B000AF78607B6803F0CA
:101180000703FB600C4BDB68BB60BA684FF6FF03DC
:101190001340BB60FB681A02BB68134343F0BF6394
:1011A00043F40033BB60044ABB68D36000BF14370C
:1011B000BD465DF8047B704700ED00E080B400AFF1
:1011C000044BDB681B0A03F007031846BD465DF8B5
:1011D000047B704700ED00E080B483B000AF0346AD
:1011E000FB7197F90730002B0BDBFB7903F01F0233
:1011F000074997F907305B09012000FA02F241F82C
:10120000232000BF0C37BD465DF8047B704700BF4C
:1012100000E100E080B483B000AF03463960FB71A9
:1012200097F90730002B0ADB3B68DAB20C4997F9D3
:1012300007301201D2B20B4483F800230AE03B6866
:10124000DAB20849FB7903F00F03043B1201D2B272
:101250000B441A7600BF0C37BD465DF8047B70471F
:1012600000E100E000ED00E080B489B000AFF8607C
:10127000B9607A60FB6803F00703FB61FB69C3F1A7
:101280000703042B28BF0423BB61FB690433062B2F
:1012900002D9FB69033B00E000237B614FF0FF3282
:1012A000BB6902FA03F3DA43BB681A407B699A40D0
:1012B0004FF0FF317B6901FA03F3D9437B680B40A0
:1012C000134318462437BD465DF8047B704780B54C
:1012D00082B000AF78607868FFF74CFF00BF083736
:1012E000BD4680BD80B586B000AF0346B9607A6068
:1012F000FB7300237B61FFF761FF78617A68B9684F
:101300007869FFF7B1FF024697F90F30114618468A
:10131000FFF780FF00BF1837BD4680BD80B582B0A3
:1013200000AF0346FB7197F907301846FFF754FFEB
:1013300000BF0837BD4680BD80B489B000AF78607B
:10134000396000237B6100233B610023BB610023E4
:10135000FB616BE10122FB6902FA03F37B613B68ED
:101360001B687A6913403B613A697B699A4240F095
:101370005A813B685B6803F00303012B05D03B688F
:101380005B6803F00303022B30D17B689B68BB6171
:10139000FB695B00032202FA03F3DB43BA691340E3
:1013A000BB613B68DA68FB695B0002FA03F3BA6968
:1013B0001343BB617B68BA699A607B685B68BB61F9
:1013C0000122FB6902FA03F3DB43BA691340BB61F4
:1013D0003B685B681B0903F00102FB6902FA03F337
:1013E000BA691343BB617B68BA695A603B685B6842
:1013F00003F00303032B17D07B68DB68BB61FB6939
:101400005B00032202FA03F3DB43BA691340BB61BA
:101410003B689A68FB695B0002FA03F3BA691343FD
:10142000BB617B68BA69DA603B685B6803F0030301
:10143000022B23D1FB69DA087B68083253F822308B
:10144000BB61FB6903F007039B000F2202FA03F361
:10145000DB43BA691340BB613B681A69FB6903F05F
:1014600007039B0002FA03F3BA691343BB61FB69EC
:10147000DA087B680832B96943F822107B681B6878
:10148000BB61FB695B00032202FA03F3DB43BA6929
:101490001340BB613B685B6803F00302FB695B00C0
:1014A00002FA03F3BA691343BB617B68BA691A6035
:1014B0003B685B6803F44033002B00F0B4800023EA
:1014C000FB60604B5B6C5F4A43F4804353645D4B4D
:1014D0005B6C03F48043FB60FB685B4AFB699B0821
:1014E000023352F82330BB61FB6903F003039B0016
:1014F0000F2202FA03F3DB43BA691340BB617B6836
:10150000524A93422BD07B68514A934225D07B6844
:10151000504A93421FD07B684F4A934219D07B6850
:101520004E4A934213D07B684D4A93420DD07B685C
:101530004C4A934207D07B684B4A934201D1072320
:101540000EE008230CE006230AE0052308E004234C
:1015500006E0032304E0022302E0012300E000236D
:10156000FA6902F0030292009340BA691343BB6127
:101570003549FB699B080233BA6941F823203B4B8C
:101580009B68BB613B69DB43BA691340BB613B6845
:101590005B6803F48013002B03D0BA693B691343E3
:1015A000BB61324ABB699360304BDB68BB613B690E
:1015B000DB43BA691340BB613B685B6803F400130B
:1015C000002B03D0BA693B691343BB61274ABB694F
:1015D000D360264B5B68BB613B69DB43BA69134050
:1015E000BB613B685B6803F40033002B03D0BA692E
:1015F0003B691343BB611D4ABB6953601B4B1B68AE
:10160000BB613B69DB43BA691340BB613B685B6804
:1016100003F48033002B03D0BA693B691343BB61E9
:10162000124ABB691360FB690133FB61FB690F2B35
:101630007FF690AE00BF00BF2437BD465DF8047B47
:10164000704700BF003802400038014000000240EF
:101650000004024000080240000C0240001002405A
:101660000014024000180240001C0240003C0140EF
:1016700080B483B000AF78600B467B8013467B70EC
:101680007B78002B03D07A887B689A6103E07B88A3
:101690001A047B689A6100BF0C37BD465DF8047B75
:1016A0007047000080B483B000AF064B01221A607F
:1016B000054B1B687B607B6800BF0C37BD465DF83F
:1016C000047B704720000E420070004080B586B059
:1016D00000AF78607B68002B01D1012367E27B6853
:1016E0001B6803F00103002B75D0884B9B6803F047
:1016F0000C03042B0CD0854B9B6803F00C03082BC8
:1017000012D1824B5B6803F48003B3F5800F0BD1D9
:101710007E4B1B6803F40033002B5BD07B685B6857
:10172000002B57D1012342E27B685B68B3F5803F11
:1017300006D1764B1B68754A43F4803313601DE075
:101740007B685B68B3F5A02F0CD1704B1B686F4AA8
:1017500043F4802313606D4B1B686C4A43F4803361
:1017600013600BE0694B1B68684A23F480331360F5
:10177000664B1B68654A23F4802313607B685B68B3
:10178000002B13D0FFF7EAFC386108E0FFF7E6FC16
:1017900002463B69D31A642B01D9032307E25B4B52
:1017A0001B6803F40033002BF0D014E0FFF7D6FCE5
:1017B000386108E0FFF7D2FC02463B69D31A642B7C
:1017C00001D90323F3E1514B1B6803F40033002BD1
:1017D000F0D100E000BF7B681B6803F00203002B20
:1017E00063D04A4B9B6803F00C03002B0BD0474B94
:1017F0009B6803F00C03082B1CD1444B5B6803F47B
:101800008003002B16D1414B1B6803F00203002B11
:1018100005D07B68DB68012B01D00123C7E13B4B7E
:101820001B6823F0F8027B681B69DB003749134310
:101830000B603AE07B68DB68002B20D0344B012240
:101840001A60FFF78BFC386108E0FFF787FC02465F
:101850003B69D31A022B01D90323A8E12B4B1B6848
:1018600003F00203002BF0D0284B1B6823F0F80292
:101870007B681B69DB00254913430B6015E0244B93
:1018800000221A60FFF76AFC386108E0FFF766FC87
:1018900002463B69D31A022B01D9032387E11B4B74
:1018A0001B6803F00203002BF0D17B681B6803F078
:1018B0000803002B36D07B685B69002B16D0154BD4
:1018C00001221A60FFF74AFC386108E0FFF746FC86
:1018D00002463B69D31A022B01D9032367E10B4B64
:1018E0005B6F03F00203002BF0D01BE0094B0022DA
:1018F0001A60FFF733FC38610EE0FFF72FFC024659
:101900003B69D31A022B07D9032350E10038024068
:1019100000004742800E4742884B5B6F03F0020392
:10192000002BEAD17B681B6803F00403002B00F056
:1019300097800023FB75814B1B6C03F08053002BB9
:101940000FD10023BB607D4B1B6C7C4A43F080535E
:1019500013647A4B1B6C03F08053BB60BB6801239C
:10196000FB75774B1B6803F48073002B18D1744B05
:101970001B68734A43F480731360FFF7EFFB386111
:1019800008E0FFF7EBFB02463B69D31A022B01D9B3
:1019900003230CE16A4B1B6803F48073002BF0D027
:1019A0007B689B68012B06D1644B1B6F634A43F035
:1019B000010313671CE07B689B68052B0CD15F4B10
:1019C0001B6F5E4A43F0040313675C4B1B6F5B4A5B
:1019D00043F0010313670BE0584B1B6F574A23F08A
:1019E00001031367554B1B6F544A23F0040313671D
:1019F0007B689B68002B15D0FFF7B0FB38610AE0CD
:101A0000FFF7ACFB02463B69D31A41F2883293429E
:101A100001D90323CBE0494B1B6F03F00203002BDA
:101A2000EED014E0FFF79AFB38610AE0FFF796FB6F
:101A300002463B69D31A41F28832934201D903230B
:101A4000B5E03E4B1B6F03F00203002BEED1FB7D94
:101A5000012B05D1394B1B6C384A23F0805313649A
:101A60007B689B69002B00F0A180344B9B6803F0DE
:101A70000C03082B5CD07B689B69022B41D1314B56
:101A800000221A60FFF76AFB386108E0FFF766FB87
:101A900002463B69D31A022B01D9032387E0274B67
:101AA0001B6803F00073002BF0D17B68DA697B6858
:101AB0001B6A1A437B685B6A9B011A437B689B6ABB
:101AC0005B08013B1B041A437B68DB6A1B061B494E
:101AD00013434B601B4B01221A60FFF73FFB386139
:101AE00008E0FFF73BFB02463B69D31A022B01D902
:101AF00003235CE0114B1B6803F00073002BF0D054
:101B000054E0104B00221A60FFF728FB386108E010
:101B1000FFF724FB02463B69D31A022B01D90323AA
:101B200045E0064B1B6803F00073002BF0D13DE04D
:101B30007B689B69012B07D1012338E00038024004
:101B400000700040600047421B4B5B68FB607B6895
:101B50009B69012B28D0FB6803F480027B68DB695A
:101B60009A4221D1FB6803F03F027B681B6A9A42CC
:101B70001AD1FA6847F6C07313407A68526A920124
:101B8000934211D1FB6803F440327B689B6A5B0887
:101B9000013B1B049A4207D1FB6803F070627B682B
:101BA000DB6A1B069A4201D0012300E0002318469D
:101BB0001837BD4680BD00BF0038024080B584B0F4
:101BC00000AF786039607B68002B01D10123CCE045
:101BD000684B1B6803F007033A689A420CD9654BBF
:101BE0003A68D2B21A70634B1B6803F007033A6875
:101BF0009A4201D00123B8E07B681B6803F002031E
:101C0000002B20D07B681B6803F00403002B05D059
:101C1000594B9B68584A43F4E05393607B681B68B8
:101C200003F00803002B05D0534B9B68524A43F442
:101C300060439360504B9B6823F0F0027B689B6885
:101C40004D4913438B607B681B6803F00103002B35
:101C500044D07B685B68012B07D1474B1B6803F4BA
:101C60000033002B19D101237FE07B685B68022BD6
:101C700003D07B685B68032B07D13F4B1B6803F0E5
:101C80000073002B09D101236FE03B4B1B6803F06D
:101C90000203002B01D1012367E0374B9B6823F03F
:101CA00003027B685B68344913438B60FFF756FA85
:101CB000F8600AE0FFF752FA0246FB68D31A41F2D5
:101CC0008832934201D903234FE02B4B9B6803F0EA
:101CD0000C027B685B689B009A42EBD1254B1B682A
:101CE00003F007033A689A420CD2224B3A68D2B208
:101CF0001A70204B1B6803F007033A689A4201D020
:101D0000012332E07B681B6803F00403002B08D03A
:101D1000194B9B6823F4E0527B68DB681649134338
:101D20008B607B681B6803F00803002B09D0124B03
:101D30009B6823F460427B681B69DB000E491343F8
:101D40008B6000F021F802460B4B9B681B0903F0E7
:101D50000F030A49CB5C22FA03F3094A1360094BCB
:101D60001B681846FFF754F8002318461037BD4685
:101D700080BD00BF003C024000380240A45D000866
:101D800000000020040000202DE9B04F94B000AF07
:101D900000237B640023FB6400233B640023BB64BB
:101DA000794B9B6803F00C03082B0DD0082B00F235
:101DB000E180002B02D0042B03D0DBE0734BBB642B
:101DC000DBE0734BBB64D8E06F4B5B6803F03F0311
:101DD0007B646D4B5B6803F48003002B63D06A4B1C
:101DE0005B689B090022BB63FA63BB6BC3F3080308
:101DF0003B6300237B63D7E90C4522462B464FF01B
:101E000000004FF00001590141EAD2615001024641
:101E10000B462146511A3961294663EB01037B6168
:101E20004FF000024FF00003D7E904AB59468B0195
:101E3000514643EA916351468A015146B2EB01088B
:101E4000594663EB01094FF000024FF000034FEADF
:101E5000C90343EA58734FEAC8029046994623469D
:101E600018EB0303BB602B4649EB0303FB604FF009
:101E700000024FF00003D7E9024529464B022146F4
:101E800043EAD15321464A02104619467B6C002290
:101E9000BB62FA62D7E90A23FEF7EAF902460B466B
:101EA0001346FB6458E0384B5B689B0900221846D8
:101EB0001146C0F308033B6200237B62D7E908891F
:101EC00042464B464FF000004FF00001590141EAF5
:101ED000D261500102460B464146B2EB010A494627
:101EE00063EB010B4FF000024FF000034FEA8B133E
:101EF00043EA9A634FEA8A12B2EB0A0463EB0B05DA
:101F00004FF000024FF00003EB0043EA5473E2008D
:101F100014461D464346E3183B604B4645EB03031E
:101F20007B604FF000024FF00003D7E900452946DF
:101F30008B02214643EA915321468A0210461946F4
:101F40007B6C0022BB61FA61D7E90623FEF790F9AA
:101F500002460B461346FB640B4B5B681B0C03F0FD
:101F6000030301335B003B64FA6C3B6CB2FBF3F39D
:101F7000BB6402E0054BBB6400BFBB6C1846503726
:101F8000BD46BDE8B08F00BF003802400024F40019
:101F900000127A0080B400AF034B1B681846BD46A0
:101FA0005DF8047B704700BF0000002080B500AFE3
:101FB000FFF7F0FF0246054B9B689B0A03F00703FF
:101FC0000349CB5C22FA03F3184680BD0038024077
:101FD000B45D000880B500AFFFF7DCFF0246054B9B
:101FE0009B685B0B03F007030349CB5C22FA03F306
:101FF000184680BD00380240B45D000880B483B04C
:1020000000AF786039607B680F221A60124B9B68C2
:1020100003F003027B685A600F4B9B6803F0F002E9
:102020007B689A600C4B9B6803F4E0527B68DA6033
:10203000094B9B68DB0803F4E0527B681A61074B8D
:102040001B6803F007023B681A6000BF0C37BD46EF
:102050005DF8047B704700BF00380240003C02403E
:1020600080B586B000AF786000237B6100233B61C0
:102070007B681B6803F00103002B05D17B681B689C
:1020800003F00403002B35D0624B00221A60FFF7E7
:1020900065F8786108E0FFF761F802467B69D31ABA
:1020A000022B01D90323B0E05B4B1B6803F00063F4
:1020B000002BF0D17B685B689A017B689B681B07EB
:1020C00055491343C1F88430524B01221A60FFF77F
:1020D00045F8786108E0FFF741F802467B69D31ABA
:1020E000022B01D9032390E04B4B1B6803F00063E4
:1020F000002BF0D07B681B6803F00203002B00F07C
:1021000083800023FB60444B1B6C434A43F08053A5
:102110001364414B1B6C03F08053FB60FB683F4B27
:102120001B683E4A43F480731360FFF717F8786129
:1021300008E0FFF713F802467B69D31A022B01D996
:10214000032362E0354B1B6803F48073002BF0D04F
:10215000314B1B6F03F440733B613B69002B2FD065
:102160007B68DB6803F440733A699A4228D02A4BB3
:102170001B6F23F440733B61294B01221A60284BEB
:1021800000221A60244A3B691367234B1B6F03F03C
:102190000103012B14D1FEF7E1FF78610AE0FEF79D
:1021A000DDFF02467B69D31A41F28832934201D99E
:1021B00003232AE0184B1B6F03F00203002BEED021
:1021C0007B68DB6803F44073B3F5407F0DD1124B9D
:1021D0009B6823F4F8127B68DB6823F0704323F4D8
:1021E00040730D4913438B6005E00B4B9B680A4A13
:1021F00023F4F8139360084B1A6F7B68DB68C3F312
:102200000B03054913430B67002318461837BD46D7
:1022100080BD00BF680047420038024000700040A7
:10222000400E474280B584B000AF78607B68002BD9
:1022300001D1012373E07B685B7FDBB2002B05D10A
:102240007B6800221A777868FEF768FD7B680222B7
:102250005A777B681B68DB6803F01003102B55D09E
:102260007B681B68CA225A627B681B6853225A62C9
:10227000786800F0D3FB0346FB73FB7B002B2CD16B
:102280007B681B689B687A68126823F4E00323F07C
:10229000400393607B681B6899687B685A687B6819
:1022A0001B691A437B685B691A437B681B680A4396
:1022B0009A607B681B687A68D2681A617B681B68C1
:1022C00019697B689B681A047B681B680A431A615A
:1022D000786800F0DAFB0346FB73FB7B002B10D120
:1022E0007B681B681A6C7B681B6822F480221A6466
:1022F0007B681B68196C7B689A697B681B680A435A
:102300001A647B681B68FF225A6201E00023FB739A
:10231000FB7B002B02D17B6801225A77FB7B18469E
:102320001037BD4680BD90B587B000AFF860B9608A
:102330007A6000237B61FB681B7F012B01D10223A4
:1023400087E0FB6801221A77FB6802225A777B68D4
:10235000002B26D1FB681B689B6803F04003002B11
:1023600002D1BB680022DA70BB681B78184600F007
:10237000B1FB03461C04BB685B78184600F0AAFB5F
:1023800003461B021C43BB689B78184600F0A2FB67
:10239000034644EA0302BB68DB789B0513437B6179
:1023A00018E0FB681B689B6803F04003002B02D118
:1023B000BB680022DA70BB681B781A04BB685B78C4
:1023C0001B021343BA6892781A43BB68DB789B05FB
:1023D00013437B61FB681B68CA225A62FB681B6857
:1023E00053225A62F86800F019FB0346FB74FB7C29
:1023F000002B20D1FB681A687B6903F07F3323F040
:10240000FE431360FB681B689A68FB681B6822F434
:1024100080229A60FB681B689968BB68DA68BB68B1
:102420001B691A43FB681B680A439A60F86800F04E
:102430002CFB0346FB74FB7C002B02D1FB680122C2
:102440005A77FB681B68FF225A62FB6800221A77E2
:10245000FB7C18461C37BD4690BD80B586B000AFEA
:10246000F860B9607A6000237B61FB681B689A6A38
:10247000BB685A60FB681B681B69C3F30E02BB682C
:102480009A60FB681B681B6803F07F3323F0FE43F0
:102490007B617B691B0CDBB203F03F03DAB2BB68E4
:1024A0001A707B691B0ADBB203F07F03DAB2BB68E8
:1024B0005A707B69DBB203F07F03DAB2BB689A70B3
:1024C0007B699B0DDBB203F00103DAB2BB68DA7003
:1024D0007B68002B1AD1BB681B78184600F018FBEC
:1024E00003461A46BB681A70BB685B78184600F052
:1024F0000FFB03461A46BB685A70BB689B781846A8
:1025000000F006FB03461A46BB689A700023184683
:102510001837BD4680BD90B587B000AFF860B96090
:102520007A6000237B61FB681B7F012B01D10223B2
:1025300071E0FB6801221A77FB6802225A777B68F8
:10254000002B0ED1BB685B7803F01003002B08D082
:10255000BB685B7823F01003DBB20A33DAB2BB68E6
:102560005A707B68002B1CD1BB68DB78184600F0E2
:10257000B1FA03461C04BB685B78184600F0AAFA5F
:1025800003461B021C43BB689B78184600F0A2FA66
:10259000034644EA0302BB681B785B0313437B6179
:1025A0000EE0BB68DB781A04BB685B781B02134340
:1025B000BA6892781A43BB681B785B0313437B614C
:1025C000FB681B68CA225A62FB681B6853225A6266
:1025D000F86800F023FA0346FB74FB7C002B0CD157
:1025E000FB681A687B6923F07F4323F0C0035360C4
:1025F000F86800F04AFA0346FB74FB7C002B02D11A
:10260000FB6801225A77FB681B68FF225A62FB684D
:1026100000221A77FB7C18461C37BD4690BD80B55A
:1026200086B000AFF860B9607A6000237B61FB6818
:102630001B685B6823F07F4323F0C0037B617B69E9
:102640001B0CDAB2BB68DA707B691B0ADBB203F0E1
:102650001F03DAB2BB685A707B69DBB203F03F0339
:10266000DAB2BB689A707B695B0BDBB203F00703DD
:10267000DAB2BB681A707B68002B1AD1BB68DB78B2
:10268000184600F045FA03461A46BB68DA70BB6884
:102690005B78184600F03CFA03461A46BB685A704D
:1026A000BB689B78184600F033FA03461A46BB68AD
:1026B0009A70002318461837BD4680BD90B589B082
:1026C00000AFF860B9607A609B4B1B689B4AA2FB25
:1026D0000323DB0A4FF47A7202FB03F37B610023CE
:1026E000FB610023BB61FB681B7F012B01D102232F
:1026F0001EE1FB6801221A77FB6802225A777B6889
:10270000002B37D1FB681B689B6803F04003002B4C
:1027100002D1BB680022DA70BB681B78184600F053
:10272000D9F903461C04BB685B78184600F0D2F95F
:1027300003461B021C43BB689B78184600F0CAF98D
:10274000034644EA0302BB68DB789B0542EA0304C4
:10275000BB6893F82030184600F0BCF903461B060E
:1027600044EA0302BB68DB691A43BB685B69134335
:10277000FB6123E0FB681B689B6803F04003002BB0
:1027800002D1BB680022DA70BB681B781A04BB68F0
:102790005B781B021343BA6892781A43BB68DB78F4
:1027A0009B051A43BB6893F820301B061A43BB688D
:1027B000DB691A43BB685B691343FB61BB685A68FA
:1027C000BB689B691343BB61FB681B68CA225A62E2
:1027D000FB681B6853225A62BB685B6AB3F5807F53
:1027E00042D1FB681B689A68FB681B6822F4807200
:1027F0009A60FB681B68DB68DAB2FB681B6862F4EE
:10280000C072DA607B69013B7B617B69002B0BD175
:10281000FB681B68FF225A62FB6803225A77FB6839
:1028200000221A77032383E0FB681B68DB6803F050
:102830000103002BE6D0FB681B68FA69DA61FB68CC
:102840001B68BA695A64FB681B689A68FB681B6856
:1028500042F480729A60FB681B689A68FB681B6888
:1028600042F480529A604CE0FB681B689A68FB68EF
:102870001B6822F400729A60FB681B68DB68DAB29E
:10288000FB681B6862F42072DA602B4B1B682B4AD2
:10289000A2FB0323DB0A4FF47A7202FB03F37B6192
:1028A0007B69013B7B617B69002B0BD1FB681B685B
:1028B000FF225A62FB6803225A77FB6800221A77CC
:1028C000032335E0FB681B68DB6803F00203002B81
:1028D000E6D0FB681B68FA691A62FB681B68BA6974
:1028E0009A64FB681B689A68FB681B6842F4007274
:1028F0009A60FB681B689A68FB681B6842F4005288
:102900009A600F4B1B680E4A43F4003313600C4B64
:102910009B680B4A43F400339360FB681B68FF22FB
:102920005A62FB6801225A77FB6800221A7700235B
:1029300018462437BD4690BD00000020D34D6210DC
:10294000003C014080B582B000AF78601F4B4FF46F
:1029500000325A617B681B689B6803F48053002B2C
:1029600012D07B681B68DB6803F48073002B0BD0EC
:102970007B681B68DB68DAB27B681B6862F4C07234
:10298000DA607868FEF758F97B681B689B6803F487
:102990000053002B12D07B681B68DB6803F40073C4
:1029A000002B0BD07B681B68DB68DAB27B681B6886
:1029B00062F42072DA60786800F0E2F87B68012245
:1029C0005A7700BF0837BD4680BD00BF003C0140BC
:1029D00080B584B000AF78600023FB607B681B6823
:1029E0000D4ADA60FEF7BAFBF86009E0FEF7B6FBC5
:1029F0000246FB68D31AB3F57A7F01D9032307E0B7
:102A00007B681B68DB6803F02003002BEED00023FB
:102A100018461037BD4680BD5F7F010080B584B089
:102A200000AF78600023BB600023FB737B681B68EA
:102A3000DB6803F04003002B22D17B681B68DA6857
:102A40007B681B6842F08002DA60FEF787FBB860A3
:102A50000CE0FEF783FB0246BB68D31AB3F57A7F1E
:102A600004D97B6804225A770123FB737B681B68B7
:102A7000DB6803F04003002B02D1FB7B012BE8D184
:102A8000FB7B18461037BD4680BD80B584B000AFD3
:102A900078600023FB737B681B68DA687B681B68BF
:102AA00022F08002DA607B681B689B6803F02003D9
:102AB000002B0AD17868FFF78BFF0346002B04D068
:102AC0007B6804225A770123FB73FB7B184610377F
:102AD000BD4680BD80B485B000AF0346FB710023C6
:102AE000FB6005E0FB680133FB60FB790A3BFB718F
:102AF000FB79092BF6D8FB68DBB21B01DAB2FB7954
:102B00001343DBB218461437BD465DF8047B7047AB
:102B100080B485B000AF0346FB710023FB60FB79F6
:102B20001B09DBB21A4613469B0013445B00FB6093
:102B3000FB68DAB2FB7903F00F03DBB21344DBB2BC
:102B400018461437BD465DF8047B704780B487B0E3
:102B500000AFF860B9607A6000237B61FB681B6896
:102B600050337B61BB689B007A6913447B617B694E
:102B70007A681A6000BF1C37BD465DF8047B704759
:102B800080B483B000AF786000BF0C37BD465DF8FD
:102B9000047B704780B582B000AF78607B68002B03
:102BA00001D1012341E07B6893F83D30DBB2002B7B
:102BB00006D17B68002283F83C20786800F039F861
:102BC0007B68022283F83D207B681A687B680433A7
:102BD0001946104600F0C0F97B68012283F84620B0
:102BE0007B68012283F83E207B68012283F83F2026
:102BF0007B68012283F840207B68012283F8412012
:102C00007B68012283F842207B68012283F84320FD
:102C10007B68012283F844207B68012283F84520E9
:102C20007B68012283F83D20002318460837BD4603
:102C300080BD80B483B000AF786000BF0C37BD4664
:102C40005DF8047B7047000080B485B000AF786009
:102C50007B6893F83D30DBB2012B01D001234EE0BD
:102C60007B68022283F83D207B681B68DA687B68FA
:102C70001B6842F00102DA607B681B68234A9342BA
:102C800022D07B681B68B3F1804F1DD07B681B6826
:102C90001F4A934218D07B681B681E4A934213D088
:102CA0007B681B681C4A93420ED07B681B681B4ADA
:102CB000934209D07B681B68194A934204D07B6811
:102CC0001B68184A934211D17B681B689B6803F00C
:102CD0000703FB60FB68062B10D07B681B681A6833
:102CE0007B681B6842F001021A6007E07B681B6882
:102CF0001A687B681B6842F001021A6000231846BC
:102D00001437BD465DF8047B704700BF00000140EA
:102D10000004004000080040000C00400004014096
:102D2000004001400018004080B584B000AF7860DA
:102D30007B681B68DB68FB607B681B681B69BB608A
:102D4000BB6803F00203002B20D0FB6803F00203F2
:102D5000002B1BD07B681B686FF002021A617B6836
:102D600001221A777B681B689B6903F00303002B21
:102D700003D0786800F0D2F805E0786800F0C4F875
:102D8000786800F0D5F87B6800221A77BB6803F0FA
:102D90000403002B20D0FB6803F00403002B1BD09E
:102DA0007B681B686FF004021A617B6802221A7745
:102DB0007B681B689B6903F44073002B03D0786821
:102DC00000F0ACF805E0786800F09EF8786800F054
:102DD000AFF87B6800221A77BB6803F00803002B6A
:102DE00020D0FB6803F00803002B1BD07B681B6816
:102DF0006FF008021A617B6804221A777B681B68EF
:102E0000DB6903F00303002B03D0786800F086F839
:102E100005E0786800F078F8786800F089F87B6859
:102E200000221A77BB6803F01003002B20D0FB6848
:102E300003F01003002B1BD07B681B686FF010029F
:102E40001A617B6808221A777B681B68DB6903F4C8
:102E50004073002B03D0786800F060F805E07868D4
:102E600000F052F8786800F063F87B6800221A7767
:102E7000BB6803F00103002B0CD0FB6803F00103D7
:102E8000002B07D07B681B686FF001021A6178681D
:102E9000FDF700FFBB6803F08003002B0CD0FB683C
:102EA00003F08003002B07D07B681B686FF0800263
:102EB0001A61786800F000F9BB6803F04003002B4A
:102EC0000CD0FB6803F04003002B07D07B681B6825
:102ED0006FF040021A61786800F034F8BB6803F0C4
:102EE0002003002B0CD0FB6803F02003002B07D03D
:102EF0007B681B686FF020021A61786800F0D2F8D6
:102F000000BF1037BD4680BD80B483B000AF78608D
:102F100000BF0C37BD465DF8047B704780B483B0BA
:102F200000AF786000BF0C37BD465DF8047B70478A
:102F300080B483B000AF786000BF0C37BD465DF849
:102F4000047B704780B483B000AF786000BF0C375B
:102F5000BD465DF8047B704780B485B000AF7860F3
:102F600039607B681B68FB607B68434A934213D0DF
:102F70007B68B3F1804F0FD07B68404A93420BD0FF
:102F80007B683F4A934207D07B683E4A934203D016
:102F90007B683D4A934208D1FB6823F07003FB60D5
:102FA0003B685B68FA681343FB607B68324A934274
:102FB0002BD07B68B3F1804F27D07B682F4A934298
:102FC00023D07B682E4A93421FD07B682D4A9342C0
:102FD0001BD07B682C4A934217D07B682B4A9342C4
:102FE00013D07B682A4A93420FD07B68294A9342C8
:102FF0000BD07B68284A934207D07B68274A9342CC
:1030000003D07B68264A934208D1FB6823F44073BF
:10301000FB603B68DB68FA681343FB60FB6823F0E6
:1030200080023B685B691343FB603B689A687B687E
:10303000DA623B681A687B689A627B680E4A934240
:1030400003D07B68104A934203D13B681A697B68BE
:103050001A637B681B6843F004027B681A607B6814
:1030600001225A617B68FA681A6000BF1437BD46B6
:103070005DF8047B704700BF000001400004004081
:1030800000080040000C00400004014000400140E6
:10309000004401400048014000180040001C00406E
:1030A0000020004080B483B000AF786000BF0C37D0
:1030B000BD465DF8047B704780B483B000AF786094
:1030C00000BF0C37BD465DF8047B704780B582B009
:1030D00000AF78607B68002B01D1012342E07B6860
:1030E00093F84130DBB2002B06D17B68002283F8D5
:1030F00040207868FDF744FE7B68242283F8412055
:103100007B681B68DA687B681B6822F40052DA600F
:10311000786800F02BF87B681B681A697B681B686D
:1031200022F490421A617B681B685A697B681B68AD
:1031300022F02A025A617B681B68DA687B681B6888
:1031400042F40052DA607B6800225A647B682022D5
:1031500083F841207B68202283F842207B6800228C
:103160005A63002318460837BD4680BD2DE9B04F8D
:10317000C0B000AFC7F8F400D7F8F4301B681B6983
:1031800023F44050D7F8F430D968D7F8F4301A68EF
:1031900040EA01031361D7F8F4309A68D7F8F430A5
:1031A0001B691A43D7F8F4305B691A43D7F8F43037
:1031B000DB691343C7F8F830D7F8F4301B68DB68D5
:1031C00023F4164121F00C01D7F8F4301A68D7F82F
:1031D000F8300B43D360D7F8F4301B685B6923F4F5
:1031E0004070D7F8F4309969D7F8F4301A6840EA9B
:1031F00001035361D7F8F4301A688F4B9A4205D017
:10320000D7F8F4301A688D4B9A4204D1FEF7E2FEEB
:10321000C7F8FC0003E0FEF7C9FEC7F8FC00D7F8CA
:10322000F430DB69B3F5004F40F00C81D7F8FC3087
:103230000022C7F8E830C7F8EC20D7E93A45224623
:103240002B469118B9655B41FB65D7E916232146EA
:1032500012EB0108294643EB01094FF000024FF041
:1032600000034FEAC90343EA58734FEAC802904685
:103270009946234618EB0303C7F8E0302B4649EB89
:103280000303C7F8E430D7F8F4305B680022C7F8CE
:10329000D830C7F8DC20D7E936120B46DB183B657F
:1032A000134642EB03037B65D7E91423D7E93801C2
:1032B000FCF7DEFF02460B46614BA3FB02235B09D2
:1032C0001C01D7F8FC300022C7F8D030C7F8D42052
:1032D000D7E9348942464B469118B9645B41FB6497
:1032E000D7E91223414612EB010A494643EB010B91
:1032F0004FF000024FF000034FEACB0343EA5A734A
:103300004FEACA0292469B4643461AEB0303C7F8AC
:10331000C8304B464BEB0303C7F8CC30D7F8F4303A
:103320005B680022C7F8C030C7F8C420D7E9301264
:103330000B46DB183B64134642EB03037B64D7E97F
:103340001023D7E93201FCF793FF02460B461146E2
:103350003B4BA3FB01235B09642202FB03F3CB1A63
:10336000DB0003F13202364BA3FB02235B095B0057
:1033700003F4F8731C44D7F8FC300022C7F8B830C7
:10338000C7F8BC20D7E92E8942464B469118B9634D
:103390005B41FB63D7E90E23414651183963494627
:1033A0004B417B634FF000024FF00003D7E90CABB9
:1033B0005946CB00514643EA51735146CA00104664
:1033C0001946034642469B18C7F8B0304B460A469A
:1033D00042EB0303C7F8B430D7F8F4305B6800223F
:1033E000C7F8A830C7F8AC20D7E92A120B46DB187B
:1033F000BB62134642EB0303FB62D7E90A23D7E91A
:103400002C01FCF735FF02460B460D4BA3FB0213C4
:103410005B09642101FB03F3D31ADB003233084A52
:10342000A2FB03235B0903F00702D7F8F4301B6803
:1034300022449A6006E100BF0010014000140140E0
:103440001F85EB51D7F8FC300022C7F8A030C7F831
:10345000A420D7E9288942464B46911839625B413E
:103460007B62D7E9082341465418494643EB0105DE
:103470004FF000024FF00003EB0043EA5473E20008
:1034800014461D464346E318C7F898304B4645EBB3
:103490000303C7F89C30D7F8F4305B680022C7F804
:1034A0009030C7F894204FF000024FF00003D7E9A6
:1034B000244529468B00214643EA917321468A0020
:1034C000D7E92601FCF7D4FE02460B46604BA3FB6E
:1034D00002235B091C01D7F8FC300022C7F88830B2
:1034E000C7F88C20D7E9228942464B469118B9612A
:1034F0005B41FB61D7E906234146511839614946D2
:103500004B417B614FF000024FF00003D7E904AB61
:103510005946CB00514643EA51735146CA00104602
:103520001946034642469B18C7F880304B460A4668
:1035300042EB0303C7F88430D7F8F4305B6800220D
:10354000BB67FA674FF000024FF00003D7E91E890E
:1035500049468B00414643EA917341468A00D7E9C8
:103560002001FCF785FE02460B461146384BA3FBB3
:1035700001235B09642202FB03F3CB1A1B013233E4
:10358000334AA2FB03235B0903F0F0031C44D7F882
:10359000FC3000223B677A67D7E91C8942464B46DC
:1035A0009118B9605B41FB60D7E90223414651188D
:1035B000396049464B417B604FF000024FF00003F9
:1035C000D7E900AB5946CB00514643EA5173514607
:1035D000CA0010461946034642469B18BB664B4636
:1035E0000A4642EB0303FB66D7F8F4305B6800221F
:1035F0003B667A664FF000024FF00003D7E9188966
:1036000049468B00414643EA917341468A00D7E917
:103610001A01FCF72DFE02460B460D4BA3FB0213CD
:103620005B09642101FB03F3D31A1B013233084AFF
:10363000A2FB03235B0903F00F02D7F8F4301B68E9
:1036400022449A6000BF07F58077BD46BDE8B08F81
:103650001F85EB5180B485B000AF0346FB8000238B
:10366000FB60B7F90630842B05D0B7F90620FB685C
:1036700013440333FB60FB6818461437BD465DF8FE
:10368000047B704780B500AF00F0E4FA00231846D1
:1036900080BDF0B589B004AF786039607B685B6944
:1036A000002B20D07B689B69002B1CD07B685C685A
:1036B0007B681D687B681E697B68B3F90830184613
:1036C000FFF7C8FF01467B685B697A6892690292DE
:1036D000019300913B6832462946204600F0EDF800
:1036E0000346FB601CE07B685C687B681D687B6848
:1036F0001B699EB27B68B3F908301846FFF7AAFF32
:10370000024607F10C03019300923B6832462946BA
:10371000204600F032F90346012B01D0002300E0DF
:10372000FB6818461437BD46F0BD80B584B000AFC5
:1037300078607B68FB60FB68002B01D0FB6800E0D1
:103740000123184600F050FA002318461037BD46F2
:1037500080BD80B483B000AF78607B6803F108025D
:103760007B685A607B684FF0FF329A607B6803F198
:1037700008027B68DA607B6803F108027B681A61E3
:103780007B6800221A6000BF0C37BD465DF8047BE1
:10379000704780B483B000AF78607B6800221A6104
:1037A00000BF0C37BD465DF8047B704780B485B020
:1037B00000AF786039607B685B68FB603B68FA68E3
:1037C0005A60FB689A683B689A60FB689B683A6835
:1037D0005A60FB683A689A603B687A681A617B684D
:1037E0001B685A1C7B681A6000BF1437BD465DF821
:1037F000047B704780B485B000AF786039603B6867
:103800001B68BB60BB68B3F1FF3F03D17B681B69DA
:10381000FB600CE07B680833FB6002E0FB685B68E0
:10382000FB60FB685B681B68BA689A42F6D2FB686B
:103830005A683B685A603B685B683A689A603B68C4
:10384000FA689A60FB683A685A603B687A681A615D
:103850007B681B685A1C7B681A6000BF1437BD4622
:103860005DF8047B704780B485B000AF78607B68FA
:103870001B69FB607B685B687A6892689A607B680A
:103880009B687A6852685A60FB685B687A689A42FB
:1038900003D17B689A68FB685A607B6800221A61D2
:1038A000FB681B685A1EFB681A60FB681B68184699
:1038B0001437BD465DF8047B704780B58EB004AF09
:1038C000F860B9607A603B607B6B002B0BD14FF0E6
:1038D000500383F31188BFF36F8FBFF34F8F3B62A9
:1038E00000BF00BFFDE7BB6B002B0BD14FF05003B7
:1038F00083F31188BFF36F8FBFF34F8FFB6100BF5E
:1039000000BFFDE754233B613B69542B0BD04FF0C4
:10391000500383F31188BFF36F8FBFF34F8FBB61E9
:1039200000BF00BFFDE73B69BB6B002B1ED07B6B6C
:10393000002B1BD0BB6B7B627B6A7A6B1A637B6A42
:10394000022283F85120002303937B6A029307F13C
:10395000140301933B6B00933B687A68B968F8687D
:1039600000F050F8786A00F0D5F801E000237B61A0
:103970007B6918462837BD4680BD80B58CB004AF42
:10398000F860B9603B601346FB80FB889B001846DB
:1039900000F0D2FE78617B69002B0ED0542000F03D
:1039A000CBFEF861FB69002B03D0FB697A691A63CF
:1039B00005E0786900F08EFF01E00023FB61FB6900
:1039C000002B17D0FB69002283F85120FA880023CE
:1039D0000393FB690293FB6A0193BB6A00933B6804
:1039E000B968F86800F00EF8F86900F093F8012360
:1039F000BB6102E04FF0FF33BB61BB691846203763
:103A0000BD4680BD80B588B000AFF860B9607A600F
:103A10003B603B6B1A6B7B6803F18043013B9B006F
:103A20001344BB61BB6923F00703BB61BB6903F0AF
:103A30000703002B0BD04FF0500383F31188BFF323
:103A40006F8FBFF34F8F7B6100BF00BFFDE7BB6887
:103A5000002B1FD00023FB6112E0BA68FB691344FE
:103A600019783A6BFB69134434330A461A70BA6802
:103A7000FB6913441B78002B06D0FB690133FB6103
:103A8000FB690F2BE9D900E000BF3B6B002283F8F4
:103A9000432003E03B6B002283F83420BB6A062BF3
:103AA00001D90623BB623B6BBA6ADA623B6BBA6A26
:103AB0005A643B6B00229A643B6B04331846FFF751
:103AC00068FE3B6B18331846FFF763FE3B6B3A6B9F
:103AD0001A61BB6AC3F107023B6B9A613B6B3A6B9D
:103AE0005A623B6B0022DA643B6B002283F8502061
:103AF0003A68F968B86900F00DFC02463B6B1A6041
:103B0000FB6A002B02D0FB6A3A6B1A6000BF2037B9
:103B1000BD4680BD80B582B000AF786000F02CFD5E
:103B20002A4B1B680133294A1360294B1B68002B61
:103B300009D1274A7B681360244B1B68012B10D1E5
:103B400000F0C4FA0DE0234B1B68002B09D1204B79
:103B50001B68DA6A7B68DB6A9A4202D81C4A7B6877
:103B600013601D4B1B6801331B4A13607B68DB6AC3
:103B700001229A40194B1B681343184A13607B6853
:103B8000DA6A13469B0013449B00154A1A447B686B
:103B9000043319461046FFF709FE00F01FFD0D4BD8
:103BA0001B68002B0ED00A4B1B68DA6A7B68DB6A45
:103BB0009A4207D20B4B4FF080521A60BFF34F8FDF
:103BC000BFF36F8F00BF0837BD4680BDC004002023
:103BD000C0030020CC040020DC040020C804002026
:103BE000C403002004ED00E080B584B000AF78602D
:103BF0000023FB607B68002B18D0144B1B68002B44
:103C00000BD04FF0500383F31188BFF36F8FBFF3D6
:103C10004F8FBB6000BF00BFFDE700F07DF80021C3
:103C2000786800F011FB00F085F8F860FB68002B65
:103C300007D1074B4FF080521A60BFF34F8FBFF38D
:103C40006F8F00BF1037BD4680BD00BFE804002065
:103C500004ED00E080B58AB004AF0023BB60002310
:103C60007B603A46391D07F108031846FCF796FCBD
:103C700039687B68BA68029201930023009300239D
:103C80000A461F491F48FFF718FE03461E4A1360E5
:103C90001D4B1B68002B02D001237B6101E0002338
:103CA0007B617B69012B16D14FF0500383F31188A0
:103CB000BFF36F8FBFF34F8F3B6100BF134B4FF0CC
:103CC000FF321A60124B01221A60124B00221A6056
:103CD00000F0AEFB0FE07B69B3F1FF3F0BD14FF07B
:103CE000500383F31188BFF36F8FBFF34F8FFB60D7
:103CF00000BF00BFFDE700BF1837BD4680BD00BF55
:103D00009C5D00089D400008E4040020E0040020C1
:103D1000CC040020C404002080B400AF044B1B6816
:103D20000133034A136000BFBD465DF8047B704752
:103D3000E804002080B584B000AF0023FB600023BE
:103D4000BB60424B1B68002B0BD14FF0500383F339
:103D50001188BFF36F8FBFF34F8F3B6000BF00BF71
:103D6000FDE700F009FC394B1B68013B374A136043
:103D7000364B1B68002B61D1354B1B68002B5DD087
:103D80002EE0344BDB68DB68FB60FB6818331846B9
:103D9000FFF769FDFB6804331846FFF764FDFB6815
:103DA000DB6A01229A402C4B1B6813432A4A13609A
:103DB000FB68DA6A13469B0013449B00274A1A44A7
:103DC000FB68043319461046FFF7F0FCFB68DA6A1B
:103DD000234B1B68DB6A9A4202D3224B01221A60F2
:103DE0001C4B1B68002BCCD1FB68002B01D000F0D2
:103DF0000BFA1D4B1B687B607B68002B10D000F01A
:103E000037F80346002B02D0164B01221A607B685C
:103E1000013B7B607B68002BF1D1134B00221A60C1
:103E2000104B1B68002B09D00123BB600F4B4FF0D8
:103E300080521A60BFF34F8FBFF36F8F00F0CEFB3D
:103E4000BB6818461037BD4680BD00BFE80400209F
:103E5000C004002080040020C8040020C403002007
:103E6000C0030020D4040020D004002004ED00E0B2
:103E700080B586B000AF00237B614F4B1B68002BE1
:103E800040F08F804D4B1B6801333B614B4A3B69CF
:103E900013603B69002B21D1494B1B681B68002B29
:103EA0000BD04FF0500383F31188BFF36F8FBFF334
:103EB0004F8F3B6000BF00BFFDE7414B1B68FB60BD
:103EC000404B1B683E4A13603E4AFB6813603E4B02
:103ED0001B6801333C4A136000F096F93B4B1B68AA
:103EE0003A699A4248D3364B1B681B68002B04D1B1
:103EF000364B4FF0FF321A603EE0314B1B68DB68F7
:103F0000DB68BB60BB685B687B603A697B689A4230
:103F100003D22E4A7B6813602EE0BB680433184638
:103F2000FFF7A1FCBB689B6A002B04D0BB68183369
:103F30001846FFF798FCBB68DB6A01229A40244BC5
:103F40001B681343224A1360BB68DA6A13469B005E
:103F500013449B001F4A1A44BB6804331946104699
:103F6000FFF724FCBB68DA6A1B4B1B68DB6A9A42CA
:103F7000B9D301237B61B6E7174B1B68DA6A154991
:103F800013469B0013449B000B441B68012B01D973
:103F900001237B61114B1B68002B07D001237B6140
:103FA00004E00F4B1B6801330D4A13607B69184610
:103FB0001837BD4680BD00BFE8040020C4040020BF
:103FC000780400207C040020D8040020E0040020B5
:103FD000C8040020C4030020C0030020D404002033
:103FE000D004002080B487B000AF274B1B68002BA3
:103FF00003D0264B01221A6040E0244B00221A60B5
:10400000234B1B68FB60FB68B3FA83F3FB72FB7AFC
:10401000C3F11F037B611F497A6913469B00134458
:104020009B000B441B68002B0BD14FF0500383F314
:104030001188BFF36F8FBFF34F8F7B6000BF00BF4E
:10404000FDE77A6913469B0013449B00114A134411
:104050003B613B695B685A683B695A603B695A68D7
:104060003B6908339A4204D13B695B685A683B69F3
:104070005A603B695B68DB68074A136000BF1C3706
:10408000BD465DF8047B7047E8040020D40400209E
:10409000C8040020C4030020C003002080B582B003
:1040A00000AF786000F052F8064B1B68012BF9D97D
:1040B000054B4FF080521A60BFF34F8FBFF36F8FE5
:1040C000F0E700BFC403002004ED00E080B582B03B
:1040D00000AF00237B600CE07A6813469B0013441A
:1040E0009B00124A13441846FFF733FB7B680133E9
:1040F0007B607B68062BEFD90D48FFF72AFB0D4844
:10410000FFF727FB0C48FFF724FB0C48FFF721FBC8
:104110000B48FFF71EFB0B4B054A1A600A4B054A7A
:104120001A6000BF0837BD4680BD00BFC403002031
:104130005004002064040020800400209404002027
:10414000AC040020780400207C04002080B582B0FC
:1041500000AF19E000F010FA104BDB68DB687B6001
:104160007B6804331846FFF77EFB0D4B1B68013B51
:104170000B4A13600B4B1B68013B0A4A136000F0AB
:104180002DFA786800F010F8064B1B68002BE1D17F
:1041900000BF00BF0837BD4680BD00BF94040020AB
:1041A000C0040020A804002080B584B000AF78606F
:1041B0007B6893F85130002B08D17B681B6B184645
:1041C00000F088FB786800F085FB19E07B6893F8C5
:1041D0005130012B03D1786800F07CFB10E07B6844
:1041E00093F85130022B0BD04FF0500383F311881A
:1041F000BFF36F8FBFF34F8FFB6000BF00BFFDE7C2
:1042000000BF1037BD4680BD80B483B000AF0C4BFB
:104210001B681B68002B04D10A4B4FF0FF321A6059
:1042200008E0074B1B68DB68DB687B607B685B68CA
:10423000044A136000BF0C37BD465DF8047B70472D
:1042400078040020E004002080B584B000AF7860DE
:104250003960294B1B68FB60284B1B6804331846E8
:10426000FFF701FB0346002B0BD1244B1B68DB6AD5
:10427000012202FA03F3DA43214B1B681340204A60
:1042800013607B68B3F1FF3F0AD13B68002B07D076
:104290001A4B1B68043319461A48FFF787FA26E0C1
:1042A000FA687B681344BB60144B1B68BA685A6099
:1042B000BA68FB689A4209D2134B1A680F4B1B6805
:1042C000043319461046FFF795FA10E00F4B1A68B1
:1042D0000A4B1B68043319461046FFF78BFA0C4B48
:1042E0001B68BA689A4202D2094ABB68136000BFD1
:1042F0001037BD4680BD00BFC4040020C0030020AD
:10430000C8040020AC0400207C04002078040020B5
:10431000E004002080B485B000AFF860B9607A6036
:10432000FB68043BFB60FB684FF080721A60FB681F
:10433000043BFB60BB6823F00102FB681A60FB686A
:10434000043BFB600C4AFB681A60FB68143BFB6093
:104350007A68FB681A60FB68043BFB60FB686FF0DF
:1043600002021A60FB68203BFB60FB6818461437AA
:10437000BD465DF8047B70477D43000880B485B07E
:1043800000AF00237B60134B1B68B3F1FF3F0BD0E2
:104390004FF0500383F31188BFF36F8FBFF34F8F3C
:1043A000FB6000BF00BFFDE74FF0500383F31188AF
:1043B000BFF36F8FBFF34F8FBB6000BF00BF7B6841
:1043C000002BFCD000BF00BF1437BD465DF8047B56
:1043D000704700BF0C00002000000000000000003B
:1043E000074B19680868B0E8F04F80F30988BFF3FD
:1043F0006F8F4FF0000080F311887047AFF300809B
:10440000C003002000BF00BF08480068006880F3B8
:1044100008884FF0000080F3148862B661B6BFF3DD
:104420004F8FBFF36F8F00DF00BF00BF08ED00E0CC
:1044300080B586B000AF474B1B68474A93420BD10B
:104440004FF0500383F31188BFF36F8FBFF34F8F8B
:10445000FB6000BF00BFFDE73E4B1B683F4A934235
:104460000BD14FF0500383F31188BFF36F8FBFF36D
:104470004F8F3B6100BF00BFFDE7394B7B617B691C
:104480001B78DBB27B607B69FF221A707B691B782B
:10449000DBB2FB70FB78DBB203F05003DAB2314BD6
:1044A0001A70314B07221A6009E02F4B1B68013B41
:1044B0002D4A1360FB78DBB25B00DBB2FB70FB784C
:1044C000DBB203F08003802BEFD0274B1B68C3F1D6
:1044D0000703042B0BD04FF0500383F31188BFF375
:1044E0006F8FBFF34F8FBB6000BF00BFFDE71E4B58
:1044F0001B681B021C4A13601B4B1B6803F4E06320
:10450000194A13607B68DAB27B691A70174B1B6813
:10451000164A43F470031360144B1B68134A43F0AC
:104520007043136000F0DAF8114B00221A6000F0BB
:10453000F9F8104B1B680F4A43F040431360FFF734
:1045400063FFFFF74FFDFFF719FF002318461837E9
:10455000BD4680BD00ED00E071C20F4170C20F4149
:1045600000E400E0EC040020F004002020ED00E076
:104570000C00002034EF00E080B483B000AF4FF0B7
:10458000500383F31188BFF36F8FBFF34F8F7B60AE
:1045900000BF104B1B6801330E4A13600D4B1B68A4
:1045A000012B10D10C4B1B68DBB2002B0BD04FF052
:1045B000500383F31188BFF36F8FBFF34F8F3B60BE
:1045C00000BF00BFFDE700BF0C37BD465DF8047BB0
:1045D000704700BF0C00002004ED00E080B483B001
:1045E00000AF124B1B68002B0BD14FF0500383F32D
:1045F0001188BFF36F8FBFF34F8F7B6000BF00BF89
:10460000FDE70A4B1B68013B084A1360074B1B6818
:10461000002B05D100233B603B6883F3118800BF6A
:1046200000BF0C37BD465DF8047B70470C000020CE
:10463000EFF30980BFF36F8F154B1A681EF0100F50
:1046400008BF20ED108A20E9F04F10602DE9090025
:104650004FF0500080F31188BFF34F8FBFF36F8F7F
:10466000FFF7C0FC4FF0000080F3118809BC196807
:104670000868B0E8F04F1EF0100F08BFB0EC108AC9
:1046800080F30988BFF36F8F704700BFAFF30080DE
:10469000C003002000BF00BF80B582B000AF4FF064
:1046A000500383F31188BFF36F8FBFF34F8F7B608D
:1046B00000BFFFF7DDFB0346002B03D0064B4FF096
:1046C00080521A6000233B603B6883F3118800BF6F
:1046D00000BF0837BD4680BD04ED00E080B400AFE8
:1046E0000B4B00221A600B4B00221A600A4B1B680E
:1046F0000A4AA2FB03239B09094A013B1360044BAE
:1047000007221A6000BFBD465DF8047B704700BFFA
:1047100010E000E018E000E000000020D34D62103F
:1047200014E000E0DFF80C00016841F47001016062
:10473000704700BF88ED00E080B58AB000AF7860B8
:104740000023FB61FFF7E8FA5C4B1B68002B01D1EB
:1047500000F024F95A4B1A687B681340002B40F094
:1047600095807B68002B1ED008227B6813447B60F9
:104770007B6803F00703002B15D07B6823F0070349
:1047800008337B607B6803F00703002B0BD04FF0EE
:10479000500383F31188BFF36F8FBFF34F8F7B619B
:1047A00000BF00BFFDE77B68002B6FD0454B1B6847
:1047B0007A689A426AD8444B3B62434B1B687B62DF
:1047C00004E07B6A3B627B6A1B687B627B6A5B6896
:1047D0007A689A4203D97B6A1B68002BF1D1374B68
:1047E0001B687A6A9A4251D03B6A1B6808221344BC
:1047F000FB617B6A1A683B6A1A607B6A5A687B684D
:10480000D21A08235B009A4220D97A6A7B68134443
:10481000BB61BB6903F00703002B0BD04FF05003C3
:1048200083F31188BFF36F8FBFF34F8F3B6100BFDE
:1048300000BFFDE77B6A5A687B68D21ABB695A6081
:104840007B6A7A685A60B86900F00AF91D4B1A68E9
:104850007B6A5B68D31A1B4A13601A4B1A681B4B9E
:104860001B689A4203D2174B1B68184A13607B6A75
:104870005A68134B1B681A437B6A5A607B6A002292
:104880001A60134B1B680133114A1360FFF752FA89
:10489000FB6903F00703002B0BD04FF0500383F3A9
:1048A0001188BFF36F8FBFF34F8FFB6000BF00BF56
:1048B000FDE7FB6918462837BD4680BDFC40002057
:1048C0001041002000410020F4400020044100205D
:1048D0000841002080B586B000AF78607B687B61BE
:1048E0007B68002B4FD008235B427A6913447B61BD
:1048F0007B693B613B695A68254B1B681340002B61
:104900000BD14FF0500383F31188BFF36F8FBFF3C8
:104910004F8FFB6000BF00BFFDE73B691B68002BAA
:104920000BD04FF0500383F31188BFF36F8FBFF3A9
:104930004F8FBB6000BF00BFFDE73B695A68144B57
:104940001B681340002B1ED03B691B68002B1AD13B
:104950003B695A680E4B1B68DB431A403B695A603F
:10496000FFF7DAF93B695A680A4B1B681344094A96
:104970001360386900F074F8074B1B680133064A6E
:104980001360FFF7D7F900BF1837BD4680BD00BFE1
:1049900010410020004100200C41002080B485B06F
:1049A00000AF4FF47053BB60274BFB60FB6803F014
:1049B0000703002B0CD0FB680733FB60FB6823F078
:1049C0000703FB60BA68FB68D31A1F4A1344BB6035
:1049D000FB687B601D4A7B6813601C4B00225A6099
:1049E0007B68BA681344FB600822FB689B1AFB6073
:1049F000FB6823F00703FB60FB68154A1360144B48
:104A00001B6800225A60124B1B6800221A607B68E8
:104A10003B603B68FA68D21A3B685A600C4B1A68D4
:104A20003B681A603B685B680A4A13603B685B68D6
:104A3000094A1360094B4FF000421A6000BF143757
:104A4000BD465DF8047B7047F4040020F44000206C
:104A5000FC400020044100200041002010410020C3
:104A600080B485B000AF7860284BFB6002E0FB6843
:104A70001B68FB60FB681B687A689A42F7D8FB6882
:104A8000BB60FB685B68BA6813447A689A4208D1D5
:104A9000FB685A687B685B681A44FB685A60FB686D
:104AA0007B607B68BB607B685B68BA681A44FB68A4
:104AB0001B689A4218D1FB681A68154B1B689A420A
:104AC0000DD07B685A68FB681B685B681A447B687A
:104AD0005A60FB681B681A687B681A6008E00C4B18
:104AE0001A687B681A6003E0FB681A687B681A60C2
:104AF000FA687B689A4202D0FB687A681A6000BF45
:104B00001437BD465DF8047B704700BFF4400020B9
:104B1000FC400020002310B50446C0E90033C0E982
:104B20000433836081814366C28183611946082210
:104B30005C3000F028F90D4B63620D4BA3620D4B06
:104B4000E3620D4B23630D4B24629C4206D003F1BC
:104B50006802944202D0D0339C4205D104F158003F
:104B6000BDE8104000F088B910BD00BF014D00083D
:104B7000234D00085B4D00087F4D000814410020C4
:104B8000024A0349034800F069B800BF1000002042
:104B9000E15900082000002041680C4B994210B5F3
:104BA000044601D000F01CFFA168094B994202D0D5
:104BB000204600F015FFE168064B994204D02046DC
:104BC000BDE8104000F00CBF10BD00BF1441002034
:104BD0007C410020E441002010B50B4B0B4C0C4AEB
:104BE0001A60204600220421FFF794FF04F16800B8
:104BF00001220921FFF78EFF04F1D0000222BDE857
:104C000010401221FFF786BF4C42002014410020C3
:104C1000814B0008014800F030B900BF5542002028
:104C2000014800F02BB900BF5542002010B50446E2
:104C3000FFF7F0FF236A1BB1BDE81040FFF7F0BF9C
:104C4000044B2362044B1B68002BF5D1FFF7C4FF14
:104C5000F2E700BF994B00084C4200202DE9F843D1
:104C60000746884614460026D4E90195B9F10109A2
:104C700005D52468002CF7D13046BDE8F883AB8910
:104C8000012B07D9B5F90E30013303D02946384638
:104C9000C04706436835E9E70FB407B5064904ABDA
:104CA000086853F8042B8168019300F071FB03B08E
:104CB0005DF804EB04B070471C0000200EB410B582
:104CC0009DB01FAB029006906FF000410A4807911B
:104CD00004910A4953F8042B0591002402A90068A5
:104CE00001931B9400F02EFA029B1C701DB0BDE8CE
:104CF000104003B0704700BF1C0000200802FFFFF7
:104D000010B50C46B1F90E1000F068F80028ABBFE2
:104D1000636DA3891B1823F48053ACBF6365A38123
:104D200010BD2DE9F0411F468B89DB0505460C4679
:104D3000164605D5B1F90E100223002200F03CF80A
:104D4000A389B4F90E1023F48053A38132463B4665
:104D50002846BDE8F04100F053B810B50C46B1F953
:104D60000E1000F029F8431CA38915BF606523F4D9
:104D7000805343F48053A38118BFA38110BDB1F9C0
:104D80000E1000F009B802440346934200D1704768
:104D900003F8011BF9E7000038B5064D002304466F
:104DA00008462B60FCF7FDF8431C02D12B6803B1C9
:104DB000236038BD5042002038B5074D04460846F0
:104DC000114600222A601A46FCF712F9431C02D150
:104DD0002B6803B1236038BD5042002038B5074D21
:104DE00004460846114600222A601A46FCF7BCF821
:104DF000431C02D12B6803B1236038BD5042002010
:104E000038B5074D04460846114600222A601A4666
:104E1000FBF705FC431C02D12B6803B1236038BDAE
:104E200050420020014B1868704700BF1C00002052
:104E300070B50D4D0D4C641BA4100026A64209D17F
:104E40000B4D0C4C00F06CFF641BA4100026A64216
:104E500005D170BD55F8043B98470136EEE755F88B
:104E6000043B98470136F2E7F85D0008F85D00085A
:104E7000F85D0008FC5D00087047704770470A4401
:104E8000914200F1FF3300D1704710B511F8014B8A
:104E900003F8014F9142F9D110BD000038B5054625
:104EA000002941D051F8043C0C1F002BB8BFE41876
:104EB00000F0E0F81D4A136833B9636014602846B7
:104EC000BDE8384000F0DCB8A34208D920682118BA
:104ED0008B4201BF19685B6809182160EDE71A462B
:104EE0005B680BB1A342FAD911685018A0420BD1EC
:104EF00020680144501883421160E0D118685B6853
:104F0000536008441060DAE702D90C232B60D6E71F
:104F1000206821188B4204BF19685B68636004BF76
:104F2000091821605460CAE738BD00BF5C42002008
:104F300070B50F4E0C463168054611B900F026FEDB
:104F400030602146284600F021FE431C03D14FF07B
:104F5000FF34204670BDC41C24F00304A042F8D0E6
:104F6000211A284600F012FE0130F2D1EFE700BF0F
:104F7000584200202DE9F843CD1C25F003050835E3
:104F80000C2D38BF0C25002D064601DBA94204D9A3
:104F90000C2333600020BDE8F883DFF8D48000F0F4
:104FA00069F8D8F800301C4644BB29463046FFF764
:104FB000BFFF431C044658D1D8F800402746002FB5
:104FC00043D1002C4BD023683946304604EB03090B
:104FD00000F0DCFD814542D121686D1A294630463A
:104FE000FFF7A6FF01303AD023682B442360D8F89E
:104FF00000305A6862BBC8F800700FE02268521B8C
:1050000020D40B2A17D96119A342256018BF596013
:10501000636808BFC8F8001062514B60304600F06A
:105020002FF804F10B00231D20F00700C21A1CBF4B
:105030001B1AA350AFE76268A3420CBFC8F8002058
:105040005A60EBE723466468AEE73C467F68B6E704
:105050001A465B68A342FBD100235360DEE70C23B2
:105060003360304600F00CF894E70560D6E700BFE7
:105070005C4200200148FFF700BF00BF54420020FF
:105080000148FFF7FBBE00BF544200202DE9F04766
:105090008E681F46BE420B6882460C4690462DD84D
:1050A000B1F90C2012F4906F26D06569096905EBFF
:1050B0004505A3EB010905EBD5757B1C4B446D1031
:1050C0009D4238BF1D46530527D52946FFF752FF9D
:1050D000064660B321694A46FFF7D1FEA38923F44F
:1050E000906343F08003A381266165614E44A5EB84
:1050F00009052660A5603E46BE4200D93E462068AE
:105100003246414600F028FDA3689B1BA36023683C
:10511000334423600020BDE8F0872A4600F046FDB6
:1051200006460028E0D121695046FFF7B7FE0C2360
:10513000CAF80030A38943F04003A3814FF0FF3049
:10514000E9E700002DE9F04F98468B891B069DB0DA
:1051500007460D46144610D50B6973B94021FFF779
:1051600009FF2860286130B90C233B604FF0FF3005
:105170001DB0BDE8F08F40236B610023099320230D
:105180008DF82930CDF80C803023DFF89C818DF824
:105190002A304FF0010923469A4613F8012B0AB131
:1051A000252AF9D1BAEB040B0BD05B4622462946DF
:1051B0003846FFF76BFF013000F0A780099A5A4488
:1051C00009929AF80030002B00F09F8000234FF0E6
:1051D000FF32CDE905230AF1010A049307938DF804
:1051E00053301A935446052214F8011B4E48FAF71F
:1051F000EFFF049AD8B9D00644BF20238DF853306E
:10520000110744BF2B238DF853309AF800302A2B16
:1052100015D0079A544600204FF00A0C214611F889
:10522000013B303B092B4BD9B0B1079214E0A0EB06
:10523000080309FA03F313430493A246D2E7039B3E
:10524000191D1B680391002BBBBF5B4242F0020299
:1052500007930793B8BF049223782E2B0AD1637863
:105260002A2B32D1039B1A1D1B68039243EAE37376
:1052700002340593DFF8C0A0217803225046FAF7E4
:10528000A7FF38B1049BA0EB0A00402282401343E1
:105290000134049314F8011B24488DF828100622C9
:1052A000FAF796FF002836D0214B1BBB039B073330
:1052B00023F0070308330393099B334409936AE7F8
:1052C0000CFB02320C460120A8E7002301340593B1
:1052D00019464FF00A0C204610F8012B303A092AE3
:1052E00003D9002BC6D00591C4E70CFB012104466D
:1052F0000123F0E703AB00932A460E4B04A938467E
:10530000AFF30080421C0646D6D1AB895B063FF561
:105310002DAF09982CE703AB00932A46054B04A94F
:10532000384600F0BBF9EDE7BC5D0008C65D00083B
:10533000000000008D500008C25D00089368013B2A
:10534000002B10B4936008DA9469A34201DB0A29A8
:1053500003D15DF8044B00F06BBB1368581C106060
:10536000197008465DF8044B7047F8B506460F46BD
:105370001446D518AC4201D1002007E014F8011BF7
:105380003A463046FFF7DAFF431CF3D1F8BD000080
:105390002DE9F04F0D469DB014469846064618B1CB
:1053A000036A0BB9FFF742FC6B6ED90705D4AB89D2
:1053B0009A0502D4A86DFFF760FDAB891B0701D5E4
:1053C0002B699BB92946304600F070FB70B16B6EBB
:1053D000DC0704D54FF0FF301DB0BDE8F08FAB897E
:1053E0009805F7D4A86DFFF749FDF3E7002309936B
:1053F00020238DF82930CDF80C803023DFF8AC81E4
:105400008DF82A304FF0010923469A4613F8012BF4
:105410000AB1252AF9D1BAEB040B0BD05B46224620
:1054200029463046FFF7A1FF013000F0A780099A16
:105430005A4409929AF80030002B00F09F80002314
:105440004FF0FF32CDE905230AF1010A04930793D7
:105450008DF853301A935446052214F8011B534813
:10546000FAF7B6FE049AD8B9D10644BF20238DF8C6
:105470005330130744BF2B238DF853309AF8003074
:105480002A2B15D0079A544600204FF00A0C2146CB
:1054900011F8013B303B092B4BD9B0B1079214E016
:1054A000A0EB080309FA03F313430493A246D2E7DF
:1054B000039B191D1B680391002BBBBF5B4242F08D
:1054C000020207930793B8BF049223782E2B0AD1C8
:1054D00063782A2B32D1039B1A1D1B68039243EA7F
:1054E000E37302340593DFF8D4A0217803225046F9
:1054F000FAF76EFE38B1049BA0EB0A00402282400E
:1055000013430134049314F8011B29488DF8281023
:105510000622FAF75DFE00283FD0264B1BBB039BFB
:10552000073323F0070308330393099B3B44099394
:105530006AE70CFB02320C460120A8E70023013485
:10554000059319464FF00A0C204610F8012B303A0B
:10555000092A03D9002BC6D00591C4E70CFB012111
:1055600004460123F0E703AB00932A46124B04A93B
:105570003046AFF300800746781CD6D16B6ED90752
:1055800005D4AB899A0502D4A86DFFF777FCAB89E7
:105590005B063FF51FAF09981EE703AB00932A4651
:1055A000054B04A9304600F079F8E4E7BC5D00083B
:1055B000C65D0008000000006B530008C25D0008D3
:1055C0002DE9F047164698468A680B69DDF8209069
:1055D0009342B8BF1346336091F8432007460C4608
:1055E0000AB1013333602368990642BF336802333E
:1055F0003360256815F0060506D104F1190AE36841
:1056000032689B1AAB4226DC94F843302268003B98
:1056100018BF012392062BD404F1430241463846B9
:10562000C84701301ED02368226903F00603042B0B
:1056300002BFE5683368ED1AA3680CBF25EAE5757B
:1056400000259342C4BF9B1AED1800261A34B542B8
:105650001AD1002008E00123524641463846C84787
:10566000013003D14FF0FF30BDE8F0870135C6E7C8
:10567000E1185A1C302081F84300224494F8451068
:1056800082F843100233C7E70123224641463846D9
:10569000C8470130E6D00136D9E700002DE9FF47C1
:1056A0000F7E0C9E782F914680460C469A4601F15B
:1056B000430207D8622F0AD8002F00F0D180582F5C
:1056C00000F0B88004F1420684F842703AE0A7F195
:1056D0006303152BF6D801A151F823F035570008C4
:1056E00049570008C5560008C5560008C5560008A9
:1056F000C556000849570008C5560008C556000899
:10570000C5560008C55600084758000873570008DA
:1057100001580008C5560008C55600086958000819
:10572000C556000873570008C5560008C55600083E
:105730000958000833681A1D1B68326004F14206DC
:1057400084F8423001239CE033682068191D3160E1
:10575000060601D51D6803E04506FBD5B3F90050E8
:10576000002D03DA2D236D4284F8433058480A2374
:1057700011E021683368080653F8045B02D4490637
:1057800048BFADB26F2F5248336014BF0A230823BD
:10579000002184F843106668A660002E05DB2168AE
:1057A0002E4321F0040121604BD01646B5FBF3F1E6
:1057B00003FB1157C75D06F8017D2F46BB420D461E
:1057C000F4D9082B0BD12368DF0708D5236961685A
:1057D0009942DEBF302306F8013C06F1FF36921BEA
:1057E0002261CDF800A04B4603AA21464046FFF7B0
:1057F000E7FE01304AD14FF0FF3004B0BDE8F0873A
:10580000236843F0200323603248782784F84570EA
:10581000236831681F0651F8045B02D45F0648BF55
:10582000ADB23160D90744BF43F0200323601DB1FE
:105830001023ADE72648E9E7236823F0200323601F
:10584000F6E71646BDE7336825686169181D3060C4
:105850002E061B6801D5196002E06806FBD5198089
:10586000002323611646BCE733681A1D32601E68A8
:10587000626800213046FAF7ABFC08B1801B60601B
:1058800063682361002384F84330AAE72369324622
:1058900049464046D0470130ADD023689B0713D41A
:1058A000E068039B9842B8BF1846A6E7012332463A
:1058B00049464046D04701309DD00135E368039901
:1058C0005B1AAB42F2DCEBE7002504F11906F5E7C1
:1058D000CD5D0008DE5D0008B1F90C202DE9F04136
:1058E000160705460C4654D44B68002B02DC0B6CA3
:1058F000002B48DDE66A002E45D0002312F48052CA
:105900002F68216A2B6030D0626DA389590705D5B5
:105910006368D21A636B0BB1236CD21A0023E66A58
:10592000216A2846B047431CA38906D129681D294E
:105930002BD82A4ACA40D60727D500226260D9044C
:105940002269226004D5421C01D12B6803B960652D
:10595000616B2F60B9B104F14403994202D028462B
:10596000FFF79CFA002363630DE001232846B0474C
:105970000246501CC9D12B68002BC6D01D2B01D06C
:10598000162B1ED12F60002022E043F040031BB2F3
:105990001BE00F69002FF6D093070E6808BF4B6914
:1059A0000F6018BF0023A6EB07088B60B8F1000F4B
:1059B000E9DD216AA66A43463A462846B0470028F0
:1059C00008DCB4F90C3043F04003A3814FF0FF3002
:1059D000BDE8F0810744A8EB0008E7E7010040209C
:1059E00038B50B6905460C4613B90025284638BD65
:1059F00018B1036A0BB9FFF719F9B4F90C30002B91
:105A0000F3D0626ED00704D4990502D4A06DFFF7DD
:105A100034FA28462146FFF75FFF636EDA07054632
:105A2000E4D4A3899B05E1D4A06DFFF727FADDE755
:105A3000F8B50E461446054618B1036A0BB9FFF7D0
:105A4000F5F8A369A360A3891A0701D5236943B9AF
:105A50002146284600F02AF818B14FF0FF373846A3
:105A6000F8BD23682269981A6369F6B28342374603
:105A700005DC21462846FFF7B3FF0028EDD1A368D7
:105A8000013BA36023685A1C22601E706269431C9C
:105A90009A4204D0A389DB07E1D50A2EDFD1214643
:105AA0002846FFF79DFF0028D9D0D6E738B5294B07
:105AB000054618680C4618B1036A0BB9FFF7B6F82B
:105AC000B4F90C30190722D4DA0607D409222A6067
:105AD00043F04003A3814FF0FF3033E0580712D565
