:020000040800F2
:1000000000000220891B0008D11A0008D91A000834
:10001000E11A0008E91A0008F11A000800000000BF
:10002000000000000000000000000000F91A0008B5
:10003000071B000800000000151B0008231B000818
:10004000D91B0008D91B0008D91B0008D91B0008C0
:10005000D91B0008D91B00082F1B0008D91B00085A
:10006000D91B0008D91B0008D91B0008D91B0008A0
:10007000D91B0008D91B0008D91B0008D91B000890
:10008000D91B0008D91B0008D91B0008D91B000880
:10009000D91B0008D91B0008D91B0008D91B000870
:1000A000D91B0008D91B0008D91B0008D91B000860
:1000B000D91B0008D91B0008D91B0008D91B000850
:1000C000D91B0008D91B0008D91B0008D91B000840
:1000D000D91B0008D91B0008D91B0008D91B000830
:1000E000D91B00083D1B0008D91B0008D91B0008BC
:1000F000D91B0008D91B0008D91B0008D91B000810
:10010000D91B0008D91B0008D91B0008D91B0008FF
:10011000D91B0008D91B0008D91B0008D91B0008EF
:10012000D91B0008D91B0008D91B0008D91B0008DF
:10013000D91B0008D91B0008D91B0008D91B0008CF
:10014000D91B0008D91B0008D91B0008511B000847
:10015000D91B0008D91B0008D91B0008D91B0008AF
:10016000D91B0008D91B0008D91B0008D91B00089F
:10017000D91B0008D91B0008D91B0008000000008B
:08018000D91B0008D91B00087F
:1001880010B5054C237833B9044B13B10448AFF3C9
:1001980000800123237010BD200100200000000012
:1001A8006896000808B5034B1BB103490348AFF331
:1001B800008008BD000000002401002068960008A7
:1001C80081F0004102E000BF83F0004330B54FEA00
:1001D80041044FEA430594EA050F08BF90EA020F6D
:1001E8001FBF54EA000C55EA020C7FEA645C7FEA00
:1001F800655C00F0E2804FEA5454D4EB5555B8BF23
:100208006D420CDD2C4480EA020281EA030382EA93
:10021800000083EA010180EA020281EA0303362D25
:1002280088BF30BD11F0004F4FEA01314FF4801CF8
:100238004CEA113102D0404261EB410113F0004F0A
:100248004FEA03334CEA133302D0524263EB4303C1
:1002580094EA050F00F0A780A4F10104D5F1200E5F
:100268000DDB02FA0EFC22FA05F2801841F10001BA
:1002780003FA0EF2801843FA05F359410EE0A5F18E
:1002880020050EF1200E012A03FA0EFC28BF4CF0BF
:10029800020C43FA05F3C01851EBE37101F0004575
:1002A80007D54FF0000EDCF1000C7EEB00006EEB82
:1002B8000101B1F5801F1BD3B1F5001F0CD349080C
:1002C8005FEA30004FEA3C0C04F101044FEA445263
:1002D80012F5800F80F09A80BCF1004F08BF5FEAEA
:1002E800500C50F1000041EB045141EA050130BDCA
:1002F8005FEA4C0C404141EB0101013C28BFB1F5DC
:10030800801FE9D291F0000F04BF01460020B1FA26
:1003180081F308BF2033A3F10B03B3F120020CDAF9
:100328000C3208DD02F1140CC2F10C0201FA0CF0D7
:1003380021FA02F10CE002F11402D8BFC2F1200C3C
:1003480001FA02F120FA0CFCDCBF41EA0C019040F2
:10035800E41AA2BF01EB0451294330BD6FEA04043B
:100368001F3C1CDA0C340EDC04F11404C4F1200226
:1003780020FA04F001FA02F340EA030021FA04F338
:1003880045EA030130BDC4F10C04C4F1200220FA8F
:1003980002F001FA04F340EA0300294630BD21FACD
:1003A80004F0294630BD94F0000F83F4801306BF93
:1003B80081F480110134013D4EE77FEA645C18BF87
:1003C8007FEA655C29D094EA050F08BF90EA020F1E
:1003D80005D054EA000C04BF1946104630BD91EA16
:1003E800030F1EBF0021002030BD5FEA545C05D119
:1003F8004000494128BF41F0004130BD14F5800458
:100408003CBF01F5801130BD01F0004545F0FE41CB
:1004180041F470014FF0000030BD7FEA645C1ABF00
:10042800194610467FEA655C1CBF0B46024650EA37
:10043800013406BF52EA033591EA030F41F4002163
:1004480030BD00BF90F0000F04BF0021704730B5E9
:100458004FF4806404F132044FF000054FF00001BE
:1004680050E700BF90F0000F04BF0021704730B57F
:100478004FF4806404F1320410F0004548BF404254
:100488004FF000013EE700BF42004FEAE2014FEAA9
:1004980031014FEA02701FBF12F07F4393F07F4F84
:1004A80081F06051704732F07F4208BF704793F087
:1004B8007F4F04BF41F40021704730B54FF460749A
:1004C80001F0004521F000411CE700BF50EA01029D
:1004D80008BF704730B54FF000050AE050EA010246
:1004E80008BF704730B511F0004502D5404261EBB6
:1004F80041014FF4806404F132045FEA915C3FF4F7
:10050800D8AE4FF003025FEADC0C18BF03325FEA93
:10051800DC0C18BF033202EBDC02C2F1200300FA44
:1005280003FC20FA02F001FA03FE40EA0E0021FA69
:1005380002F11444BDE600BF70B54FF0FF0C4CF457
:10054800E06C1CEA11541DBF1CEA135594EA0C0F09
:1005580095EA0C0F00F0DEF82C4481EA030621EA44
:100568004C5123EA4C5350EA013518BF52EA03357F
:1005780041F4801143F4801338D0A0FB02CE4FF031
:100588000005E1FB02E506F00042E0FB03E54FF061
:100598000006E1FB03569CF0000F18BF4EF0010E59
:1005A800A4F1FF04B6F5007F64F5407404D25FEA55
:1005B8004E0E6D4146EB060642EAC62141EA555108
:1005C8004FEAC52040EA5E504FEACE2EB4F1FD0C4A
:1005D80088BFBCF5E06F1ED8BEF1004F08BF5FEAC8
:1005E800500E50F1000041EB045170BD06F000467A
:1005F80046EA010140EA020081EA0301B4EB5C0427
:10060800C2BFD4EB0C0541EA045170BD41F480111E
:100618004FF0000E013C00F3AB8014F1360FDEBF43
:10062800002001F0004170BDC4F10004203C35DA1F
:100638000C341BDC04F11404C4F1200500FA05F3A2
:1006480020FA04F001FA05F240EA020001F0004243
:1006580021F0004110EBD37021FA04F642EB0601B9
:100668005EEA430E08BF20EAD37070BDC4F10C04E3
:10067800C4F1200500FA04F320FA05F001FA04F2A7
:1006880040EA020001F0004110EBD37041F1000193
:100698005EEA430E08BF20EAD37070BDC4F120059E
:1006A80000FA05F24EEA020E20FA04F301FA05F206
:1006B80043EA020321FA04F001F0004121FA04F2AE
:1006C80020EA020000EBD3705EEA430E08BF20EA7E
:1006D800D37070BD94F0000F0FD101F000464000B8
:1006E80041EB010111F4801F08BF013CF7D041EA3A
:1006F800060195F0000F18BF704703F0004652003E
:1007080043EB030313F4801F08BF013DF7D043EA0E
:100718000603704794EA0C0F0CEA135518BF95EAC4
:100728000C0F0CD050EA410618BF52EA4306D1D14B
:1007380081EA030101F000414FF0000070BD50EA6A
:10074800410606BF1046194652EA430619D094EAF4
:100758000C0F02D150EA013613D195EA0C0F05D1DE
:1007680052EA03361CBF104619460AD181EA030132
:1007780001F0004141F0FE4141F470014FF00000EA
:1007880070BD41F0FE4141F4780170BD70B54FF085
:10079800FF0C4CF4E06C1CEA11541DBF1CEA135505
:1007A80094EA0C0F95EA0C0F00F0A7F8A4EB0504E7
:1007B80081EA030E52EA03354FEA013100F08880DE
:1007C8004FEA03334FF0805545EA131343EA1263A7
:1007D8004FEA022245EA111545EA10654FEA00265C
:1007E8000EF000419D4208BF964244F1FD0404F515
:1007F800407402D25B084FEA3202B61A65EB030571
:100808005B084FEA32024FF480104FF4002CB6EB2D
:10081800020E75EB030E22BFB61A754640EA0C00AD
:100828005B084FEA3202B6EB020E75EB030E22BFED
:10083800B61A754640EA5C005B084FEA3202B6EB2E
:10084800020E75EB030E22BFB61A754640EA9C00ED
:100858005B084FEA3202B6EB020E75EB030E22BFBD
:10086800B61A754640EADC0055EA060E18D04FEA7B
:10087800051545EA16754FEA06164FEAC30343EA1B
:1008880052734FEAC2025FEA1C1CC0D111F4801FE8
:100898000BD141EA00014FF000004FF0004CB6E7E1
:1008A80011F4801F04BF01430020B4F1FD0C88BF80
:1008B800BCF5E06F3FF6AFAEB5EB030C04BFB6EB8B
:1008C800020C5FEA500C50F1000041EB045170BD7E
:1008D8000EF0004E4EEA113114EB5C04C2BFD4EBAB
:1008E8000C0541EA045170BD41F480114FF0000E2F
:1008F800013C90E645EA060E8DE60CEA135594EAAB
:100908000C0F08BF95EA0C0F3FF43BAF94EA0C0FAD
:100918000AD150EA01347FF434AF95EA0C0F7FF422
:1009280025AF104619462CE795EA0C0F06D152EA76
:1009380003353FF4FDAE1046194622E750EA41065A
:1009480018BF52EA43067FF4C5AE50EA41047FF46B
:100958000DAF52EA43057FF4EBAE12E74FEA4102CE
:1009680012F5001215D211D56FF47873B3EB6252F9
:1009780012D94FEAC12343F0004343EA505311F020
:10098800004F23FA02F018BF404270474FF00000B2
:10099800704750EA013005D111F0004008BF6FF0F0
:1009A800004070474FF00000704700BF53B94AB984
:1009B800002908BF00281CBF4FF0FF314FF0FF305F
:1009C80000F088B9ADF1080C6DE904CE00F006F826
:1009D800DDF804E0DDE9022304B070472DE9F047B3
:1009E800089D8E4604468846002B4AD18A421746FF
:1009F80062D9B2FA82F64EB1C6F1200301FA06F8BE
:100A080020FA03F3B74043EA0808B4404FEA174E08
:100A18001FFA87FCB8FBFEF1230C0EFB118843EA92
:100A2800084301FB0CF29A4209D9FB1801F1FF3087
:100A380080F0EA809A4240F2E78002393B449A1AF1
:100A4800A3B2B2FBFEF00EFB102243EA024300FB06
:100A58000CFC9C4509D9FB1800F1FF3280F0D680C8
:100A68009C4540F2D3803B44023840EA0140A3EB66
:100A78000C0300211DB1F3400022C5E90032BDE896
:100A8800F0878B4205D90DB1C5E900010021084660
:100A9800F5E7B3FA83F1002946D1734502D38242C0
:100AA80000F20581841A6EEB030201209046002DA6
:100AB800E5D0C5E90048E2E7002A00F09080B2FAE4
:100AC80082F6002E40F0A4808A1A030C4FEA174ED3
:100AD80080B2BCB20121B2FBFEFC0EFB1C2243EA31
:100AE800024304FB0CF29A4207D9FB180CF1FF38B9
:100AF80002D29A4200F2E080C4469B1AB3FBFEF28F
:100B08000EFB123340EA034302FB04F49C4207D96C
:100B1800FB1802F1FF3002D29C4200F2CA80024662
:100B28001B1B42EA0C40A5E7C1F120068B4022FAC4
:100B380006F71F430EFA01F420FA06F32EFA06FE12
:100B48004FEA1749234300FA01F81FFA87FCBEFB56
:100B5800F9F01C0C09FB10EE44EA0E4400FB0CFEF5
:100B6800A64502FA01F209D93C1900F1FF3A80F0D2
:100B78009C80A64540F2998002383C44A4EB0E04C0
:100B88001FFA83FEB4FBF9F309FB13444EEA04444D
:100B980003FB0CFCA44508D93C1903F1FF3E80F087
:100BA8008280A4457FD9023B3C4443EA0040A4EB41
:100BB8000C04A0FB02EC64457346E14662D35FD0A7
:100BC8005DB1B8EB030264EB090404FA06F622FAF5
:100BD80001F31E43CC40C5E9006400214FE7B1FB97
:100BE800F2FC010C41EA0E4180B240EA01423B4668
:100BF80038463C46B846BE462026B1FBF7F1A2EB84
:100C0800080241EA0C4166E7014618E710462CE75E
:100C1800C6F120022EFA02F3B740B14020FA02F2E0
:100C28004FEA174E0A43B3FBFEF8BCB20EFB18336B
:100C3800110C41EA034108FB04F9B04089454FEA29
:100C4800104380B23ED9791808F1FF3C01D289459A
:100C58001FD8A1EB0901B1FBFEF909FB04F80EFB53
:100C6800191192B242EA0142424529D2BA1809F151
:100C7800FF31C4D24245C2D2A9F102013A44BEE7CB
:100C8800F0459DD2BEEB02036CEB070C0138E14640
:100C980096E7A7EB09094944A8F1020CB1FBFEF954
:100CA80009FB04F8DBE773467FE7504666E708462A
:100CB800FDE63B44023A33E7ACF1020C3B441CE747
:100CC80049469CE7A1EB0901C446B1FBFEF909FBC3
:100CD80004F8C4E7704700BF80B584B000AF03468E
:100CE8003960FB711346BB71FB79FB730022082145
:100CF8000C4801F0B3FA07F10F010A2301220A4850
:100D080003F089FFBB799AB20A233968064803F0D1
:100D180082FF01220821034801F0A0FA00BF103722
:100D2800BD4680BD001002403C01002080B584B063
:100D380000AF03463960FB711346BB71FB7963F062
:100D48007F03DBB23B7200220821184801F086FAC3
:100D580007F108010A230122154803F05CFFBB795B
:100D68009AB207F108010A23114804F098F8012201
:100D780008210E4801F072FA0023FB730BE0FA7B9E
:100D8800FB7B39680B4410323A4412F8082C1A706D
:100D9800FB7B0133FB73FA7BBB7903F003039A42B5
:100DA800EDDB00BF00BF1037BD4680BD001002401C
:100DB8003C01002080B584B000AF78603960002322
:100DC800FB73582279685B4808F03CFC3B68DB7889
:100DD8005BB203F007035AB2FB7B5BB213435BB20F
:100DE800DBB2FB733B681B785BB223F00F035AB28C
:100DF800FB7B5BB213435BB2DBB2FB7307F10F0300
:100E0800012219462020FFF767FF0023FB733B6888
:100E18009B785BB223F03F035AB2FB7B5BB2134370
:100E28005BB2DBB2FB733B685B785BB203F0380301
:100E38005AB2FB7B5BB213435BB2DBB2FB7307F1C5
:100E48000F03012219462420FFF746FF3B681B7950
:100E5800002B08D08823FB7307F10F0301221946E2
:100E68002320FFF739FF3B685B78202B58D801A275
:100E780052F823F0010F0008290F0008290F000875
:100E8800290F0008290F0008290F0008290F00085A
:100E9800290F0008090F0008290F0008290F00086A
:100EA800290F0008290F0008290F0008290F00083A
:100EB800290F0008110F0008290F0008290F000842
:100EC800290F0008290F0008290F0008290F00081A
:100ED800290F0008190F0008290F0008290F00081A
:100EE800290F0008290F0008290F0008290F0008FA
:100EF800290F0008210F00080F4B104A1A600FE055
:100F08000D4B0F4A1A600BE00B4B0E4A1A6007E0B4
:100F1800094B0D4A1A6003E0074B0C4A1A6000BFE0
:100F2800012208210A4801F099F900BF1037BD468F
:100F380080BD00BF3C010020000000208FC2753D2D
:100F48008FC2F53DEC51383E8FC2753E48E13A3FBD
:100F58000010024080B586B000AF786007F1140336
:100F6800022219462820FFF7E1FE7B7D1B029BB277
:100F78003A7D13449BB21BB2BB8107F114030222D2
:100F880019462A20FFF7D2FE7B7D1B029BB23A7DD1
:100F980013449BB21BB2FB8107F1140302221946CA
:100FA8002C20FFF7C3FE7B7D1B029BB23A7D1344C6
:100FB8009BB21BB23B827B681A4607F10C03186888
:100FC80010609B88938078681837BD4680BD000004
:100FD80080B584B000AF3B1D1846FFF7BBFFB7F9DB
:100FE800043007EE903AF8EEE77A17EE900AFFF72A
:100FF8004BFA39A3D3E90023FFF7C8FB02460B4697
:101008001046194636A3D3E90023FFF795FA02469E
:101018000B4610461946FFF7A1FC03465BB23B702E
:10102800B7F9063007EE903AF8EEE77A17EE900A2D
:10103800FFF72AFA28A3D3E90023FFF7A7FB024604
:101048000B461046194626A3D3E90023FFF774FA86
:1010580002460B4610461946FFF780FC03465BB272
:101068007B70B7F9083007EE903AF8EEE77A17EE9A
:10107800900AFFF709FA18A3D3E90023FFF786FBC4
:1010880002460B461046194615A3D3E90023FFF77D
:1010980053FA02460B4610461946FFF75FFC034613
:1010A8005BB2BB7007F10C033A461268114619800F
:1010B8000233120C1A7000233A7B62F307037A7B1F
:1010C80062F30F23BA7B62F3174318461037BD4605
:1010D80080BD00BFAFF3008000000000E0FFEF40DC
:1010E8000000000000E06F4080B584B000AF786079
:1010F80000F0D6FDF86007F10B03012219462720FE
:10110800FFF714FEFB7A03F00703002B0DD1FB7ADF
:1011180003F00703002B09D100F0C2FD0246FB686B
:10112800D31A7A689A42E6D800E000BFFB7A03F047
:101138000703002B01D0012300E0002318461037D5
:10114800BD4680BD80B483B000AF0346FB80FB88FA
:10115800012B02D1044B01221A7000BF0C37BD4687
:101168005DF8047B704700BF9401002090B587B0FC
:1011780000AF00F02FFD00F00DF90023BB607B4BA2
:101188001B6C7A4A43F080531364784B1B6C03F052
:101198008053BB60BB6802F0CDFA744B9B6823F4A4
:1011A800F813724A43F400239360704B1B6F6F4A25
:1011B80043F4407313676E4B01221A6000F042FA41
:1011C80000F016FA00F052F907F0D8FD00F0DAF94D
:1011D800002236210F2000F0DDFA03230722012127
:1011E800192000F005FB07F10C030022194661489D
:1011F80003F0CDF9BB7B002237210F2000F02AFB3A
:1012080030233B7400237B74C023BB740723FB7417
:1012180000233B7507F1100319465748FFF7CAFD2D
:101228004FF47A70FFF760FF0346002B16D0FFF7E4
:10123800CFFE0246514B11461970C2F3072159706F
:10124800C2F307429A704E4C3B461846FFF782FE9F
:1012580022463B46186810609B889380484BB3F938
:101268000030002B0CDA01224FF48051454800F081
:10127800F5FF00224FF48041424800F0EFFF0BE0F9
:1012880000224FF480513F4800F0E8FF01224FF45C
:1012980080413C4800F0E2FF394BB3F90230002BA3
:1012A8000CDA01224FF40041364800F0D7FF002243
:1012B8004FF40051334800F0D1FF0BE000224FF407
:1012C8000041304800F0CAFF01224FF400512D4878
:1012D80000F0C4FF294B93F90030142B05DC274B91
:1012E80093F9003013F1140F05DA244B93F9002019
:1012F800254B5A7002E0244B00225A701F4B93F979
:101308000130142B05DC1D4B93F9013013F1140F38
:1013180005DA1A4B93F901201B4B9A7002E01A4B1D
:1013280000229A70194B1B78DBB2012B15D1164B92
:1013380001221A7004221449154806F07DF932205A
:1013480000F0BAFC104B00221A7004220E49104813
:1013580006F072F90D4B00221A7004220A490C4853
:1013680006F06AF90A2000F0A7FC59E700380240A5
:101378003C0E474298010020B80100205C02002082
:1013880060020020000C0240580200209401002056
:101398007002002080B594B000AF07F1200330221E
:1013A8000021184608F022F907F10C0300221A6000
:1013B8005A609A60DA601A610023BB60294B1B6C83
:1013C800284A43F080531364264B1B6C03F0805368
:1013D800BB60BB6800237B60234B1B68224A43F435
:1013E80080431360204B1B6803F480437B607B6859
:1013F80009233B624FF480337B6201237B63022322
:10140800BB634FF48003FB6304233B64A8237B6422
:101418000223BB640723FB6407F12003184602F08C
:101428009DF90346002B01D000F05EFA0F23FB6004
:1014380002233B6100237B614FF4A053BB614FF44F
:101448008053FB6107F10C030521184602F0FEFBEF
:101458000346002B01D000F047FA00BF5037BD46C5
:1014680080BD00BF003802400070004080B590B0D9
:1014780000AF07F12C0300221A605A609A60DA6004
:101488001A610023BB623B4628220021184608F057
:10149800ADF83A4B3A4A1A60384B00225A60374B3B
:1014A8007F229A60354BFF22DA60344B00221A61A2
:1014B800324B00225A61314B00229A612F4802F0C8
:1014C800C7FE0346002B01D000F00EFA002387F870
:1014D8002C30002387F82D30002387F82E30002386
:1014E800BB630023FB6307F12C0300221946234842
:1014F80002F02FFF0346002B01D000F0F5F901237D
:1015080087F82830012387F82930012387F82A3003
:10151800002387F82B3007F12803002219461748C3
:1015280002F0B1FF0346002B01D000F0DDF90023E3
:101538003B7000237B700023BB7000237B6000237B
:10154800FB6000233B6100237B610023BB61002318
:10155800FB61012387F820304FF480737B623B46A0
:1015680000221946054803F061F80346002B01D014
:1015780000F0BAF900BF4037BD4680BD9801002091
:101588000028004080B500AF174B184A1A60164B68
:101598004FF482725A60144B00229A60124B002258
:1015A800DA60114B00221A610F4B00225A610E4B70
:1015B8004FF400729A610C4B2022DA610A4B002228
:1015C8001A62094B00225A62074B00229A62064BA4
:1015D8000A22DA62044803F095FA0346002B01D088
:1015E80000F082F900BF80BDB80100200030014042
:1015F80080B500AF114B124A1A60104B4FF4E1321C
:101608005A600E4B00229A600C4B0022DA600B4B9A
:1016180000221A61094B0C225A61084B00229A6178
:10162800064B0022DA61054804F03EF80346002B19
:1016380001D000F059F900BF80BD00BF10020020A2
:101648000044004080B58CB000AF07F11C030022B5
:101658001A605A609A60DA601A610023BB61494BCC
:101668001B6B484A43F010031363464B1B6B03F094
:101678001003BB61BB6900237B61424B1B6B414A72
:1016880043F0040313633F4B1B6B03F004037B61BC
:101698007B6900233B613B4B1B6B3A4A43F0800359
:1016A8001363384B1B6B03F080033B613B690023DA
:1016B800FB60344B1B6B334A43F001031363314B1C
:1016C8001B6B03F00103FB60FB680023BB602D4B21
:1016D8001B6B2C4A43F0080313632A4B1B6B03F064
:1016E8000803BB60BB6800237B60264B1B6B254A45
:1016F80043F002031363234B1B6B03F002037B606D
:101708007B6800220821204800F0A8FD00224FF441
:1017180070411E4800F0A2FD0823FB6101233B62D3
:1017280000237B620023BB6207F11C03194616489D
:1017380000F0F8FB0123FB614FF488133B620023A0
:101748007B6207F11C031946114800F0EBFB4FF4CC
:101758007043FB6101233B6200237B620023BB6271
:1017680007F11C031946094800F0DCFB00220021A0
:10177800062000F0A0FB062000F0B9FB00BF3037C0
:10178800BD4680BD0038024000100240000C0240F7
:101798000000024080B588B000AF0346FB710B46DD
:1017A800BB7113467B7107F10C0300221A605A6063
:1017B8009A60DA601A61FB793B73BB797B737B793A
:1017C800BB730023BB610023FB6107F10C030022FC
:1017D8001946064802F0BDFD0346002B01D000F073
:1017E80083F800BF2037BD4680BD00BF98010020A8
:1017F80090B585B000AF0446084611461A46234600
:10180800FB710346BB710B467B7113463B7100238A
:10181800FB603B793B73BB797B737B79BB73FB794B
:10182800FB7307F10C0300221946094802F02BFE4E
:101838000346002B01D000F057F842F2453201214F
:10184800034803F03BF900BF1437BD4690BD00BF05
:101858009801002090B58DB000AF044608461146A7
:101868001A462346FB710346BB710B467B71134630
:101878003B7107F1080328220021184607F0B6FE3D
:10188800FB793B72BB797B727B79BB720023FB606F
:1018980000237B610023BB610023FB6100233B62C3
:1018A80000237B623B7987F828304FF48073FB6212
:1018B80007F1080300221946054802F0B7FE03465F
:1018C800002B01D000F010F800BF3437BD4690BDA2
:1018D8009801002080B483B000AF786000BF0C3757
:1018E800BD465DF8047B704780B400AF72B600BF98
:1018F80000BFFDE780B483B000AF00237B60104BCE
:101908005B6C0F4A43F4804353640D4B5B6C03F4E8
:1019180080437B607B6800233B60094B1B6C084A53
:1019280043F080531364064B1B6C03F080533B60F9
:101938003B6800BF0C37BD465DF8047B704700BFAD
:101948000038024080B586B000AF786007F1080320
:1019580000221A605A609A60DA607B681B68104A35
:10196800934219D10223BB604FF400737B6107F1E6
:101978000803184602F08AFB0346002B01D0FFF744
:10198800B3FF084B01221A6000220021292000F031
:1019980092FA292000F0ABFA00BF1837BD4680BD87
:1019A800002800403C0E474280B58AB000AF7860FE
:1019B80007F1140300221A605A609A60DA601A610B
:1019C8007B681B68194A93422BD100233B61184B53
:1019D8005B6C174A43F480535364154B5B6C03F4F8
:1019E80080533B613B690023FB60114B1B6B104A22
:1019F80043F0010313630E4B1B6B03F00103FB6001
:101A0800FB68E0237B610223BB610023FB610323A6
:101A18003B6205237B6207F114031946054800F071
:101A280081FA00BF2837BD4680BD00BF00300140A5
:101A3800003802400000024080B58AB000AF7860EC
:101A480007F1140300221A605A609A60DA601A617A
:101A58007B681B68194A93422BD100233B61184BC2
:101A68001B6C174A43F400331364154B1B6C03F4C7
:101A780000333B613B690023FB60114B1B6B104A31
:101A880043F0010313630E4B1B6B03F00103FB6070
:101A9800FB680C237B610223BB610023FB610323EA
:101AA8003B6207237B6207F114031946054800F0DF
:101AB80039FA00BF2837BD4680BD00BF004400404A
:101AC800003802400000024080B400AF00BFFDE7CC
:101AD80080B400AF00BFFDE780B400AF00BFFDE7F2
:101AE80080B400AF00BFFDE780B400AF00BFFDE7E2
:101AF80080B400AF00BFBD465DF8047B704780B47A
:101B080000AF00BFBD465DF8047B704780B400AFEE
:101B180000BFBD465DF8047B704780B500AF00F09C
:101B2800ABF800BF80BD80B500AF012000F0B0FB6E
:101B380000BF80BD80B500AF024802F0BBFE00BF09
:101B480080BD00BF9801002080B500AF024800F0BA
:101B5800FBFC00BF80BD00BF4C07002080B400AF75
:101B6800064BD3F88830054A43F47003C2F888302E
:101B780000BFBD465DF8047B704700BF00ED00E084
:101B8800DFF834D0FFF7EAFF0C480D490D4A00236F
:101B980002E0D458C4500433C4188C42F9D30A4A1A
:101BA8000A4C002301E013600432A242FBD307F081
:101BB80025FDFFF7DBFA7047000002200000002037
:101BC80020010020E496000820010020440C002099
:101BD800FEE7000080B500AF0E4B1B680D4A43F4CA
:101BE800007313600B4B1B680A4A43F4806313604D
:101BF800084B1B68074A43F480731360032000F006
:101C08004FF90F2000F008F8FFF774FE002318467C
:101C180080BD00BF003C024080B582B000AF786054
:101C2800124B1A68124B1B7819464FF47A73B3FBA0
:101C3800F1F3B2FBF3F3184600F067F90346002B03
:101C480001D001230EE07B680F2B0AD800227968A7
:101C58004FF0FF3000F02FF9064A7B68136000232D
:101C680000E0012318460837BD4680BD0400002067
:101C78000C0000200800002080B400AF064B1B7841
:101C88001A46064B1B681344044A136000BFBD463E
:101C98005DF8047B704700BF0C000020680200203C
:101CA80080B400AF034B1B681846BD465DF8047B43
:101CB800704700BF6802002080B584B000AF78602C
:101CC800FFF7EEFFB8607B68FB60FB68B3F1FF3F8E
:101CD80005D00A4B1B781A46FB681344FB6000BF0B
:101CE800FFF7DEFF0246BB68D31AFA689A42F7D8B4
:101CF80000BF00BF1037BD4680BD00BF0C000020EC
:101D080080B485B000AF78607B6803F00703FB60A0
:101D18000C4BDB68BB60BA684FF6FF031340BB602F
:101D2800FB681A02BB68134343F0BF6343F40033F4
:101D3800BB60044ABB68D36000BF1437BD465DF87A
:101D4800047B704700ED00E080B400AF044BDB6813
:101D58001B0A03F007031846BD465DF8047B70476D
:101D680000ED00E080B483B000AF0346FB7197F943
:101D78000730002B0BDBFB7903F01F02074997F9AB
:101D880007305B09012000FA02F241F8232000BF66
:101D98000C37BD465DF8047B704700BF00E100E0EA
:101DA80080B483B000AF03463960FB7197F9073000
:101DB800002B0ADB3B68DAB20C4997F907301201AD
:101DC800D2B20B4483F800230AE03B68DAB2084930
:101DD800FB7903F00F03043B1201D2B20B441A76CD
:101DE80000BF0C37BD465DF8047B704700E100E09A
:101DF80000ED00E080B489B000AFF860B9607A60A7
:101E0800FB6803F00703FB61FB69C3F10703042BBD
:101E180028BF0423BB61FB690433062B02D9FB6985
:101E2800033B00E000237B614FF0FF32BB6902FAFD
:101E380003F3DA43BB681A407B699A404FF0FF31DD
:101E48007B6901FA03F3D9437B680B4013431846B7
:101E58002437BD465DF8047B7047000080B582B02A
:101E680000AF78607B68013BB3F1807F01D3012329
:101E78000FE00A4A7B68013B53600F214FF0FF30A7
:101E8800FFF78EFF054B00229A60044B07221A6069
:101E9800002318460837BD4680BD00BF10E000E0AB
:101EA80080B582B000AF78607868FFF729FF00BF7F
:101EB8000837BD4680BD80B586B000AF0346B9601F
:101EC8007A60FB7300237B61FFF73EFF78617A68D5
:101ED800B9687869FFF78EFF024697F90F30114607
:101EE8001846FFF75DFF00BF1837BD4680BD80B5B7
:101EF80082B000AF0346FB7197F907301846FFF729
:101F080031FF00BF0837BD4680BD80B582B000AF45
:101F180078607868FFF7A2FF034618460837BD4681
:101F280080BD000080B489B000AF786039600023BC
:101F38007B6100233B610023BB610023FB616BE1F4
:101F48000122FB6902FA03F37B613B681B687A692B
:101F580013403B613A697B699A4240F05A813B6879
:101F68005B6803F00303012B05D03B685B6803F053
:101F78000303022B30D17B689B68BB61FB695B0064
:101F8800032202FA03F3DB43BA691340BB613B68DF
:101F9800DA68FB695B0002FA03F3BA691343BB61B1
:101FA8007B68BA699A607B685B68BB610122FB69E0
:101FB80002FA03F3DB43BA691340BB613B685B6811
:101FC8001B0903F00102FB6902FA03F3BA69134320
:101FD800BB617B68BA695A603B685B6803F00303BE
:101FE800032B17D07B68DB68BB61FB695B000322AE
:101FF80002FA03F3DB43BA691340BB613B689A6892
:10200800FB695B0002FA03F3BA691343BB617B689F
:10201800BA69DA603B685B6803F00303022B23D1DB
:10202800FB69DA087B68083253F82230BB61FB6928
:1020380003F007039B000F2202FA03F3DB43BA699C
:102048001340BB613B681A69FB6903F007039B00F7
:1020580002FA03F3BA691343BB61FB69DA087B68C8
:102068000832B96943F822107B681B68BB61FB69B9
:102078005B00032202FA03F3DB43BA691340BB6136
:102088003B685B6803F00302FB695B0002FA03F339
:10209800BA691343BB617B68BA691A603B685B68BD
:1020A80003F44033002B00F0B4800023FB60604B46
:1020B8005B6C5F4A43F4804353645D4B5B6C03F491
:1020C8008043FB60FB685B4AFB699B08023352F85C
:1020D8002330BB61FB6903F003039B000F2202FA64
:1020E80003F3DB43BA691340BB617B68524A9342EE
:1020F8002BD07B68514A934225D07B68504A934243
:102108001FD07B684F4A934219D07B684E4A93424E
:1021180013D07B684D4A93420DD07B684C4A93425A
:1021280007D07B684B4A934201D107230EE008236E
:102138000CE006230AE0052308E0042306E0032355
:1021480004E0022302E0012300E00023FA6902F020
:10215800030292009340BA691343BB613549FB6996
:102168009B080233BA6941F823203B4B9B68BB614B
:102178003B69DB43BA691340BB613B685B6803F4A6
:102188008013002B03D0BA693B691343BB61324A01
:10219800BB699360304BDB68BB613B69DB43BA6961
:1021A8001340BB613B685B6803F40013002B03D04A
:1021B800BA693B691343BB61274ABB69D360264BA5
:1021C8005B68BB613B69DB43BA691340BB613B6831
:1021D8005B6803F40033002B03D0BA693B691343EF
:1021E800BB611D4ABB6953601B4B1B68BB613B69E4
:1021F800DB43BA691340BB613B685B6803F4803317
:10220800002B03D0BA693B691343BB61124ABB690F
:102218001360FB690133FB61FB690F2B7FF690AEFE
:1022280000BF00BF2437BD465DF8047B704700BF80
:10223800003802400038014000000240000402401B
:1022480000080240000C0240001002400014024046
:1022580000180240001C0240003C014080B483B0DA
:1022680000AF78600B467B8013467B707B78002B31
:1022780003D07A887B689A6103E07B881A047B68BC
:102288009A6100BF0C37BD465DF8047B70470000BB
:1022980080B582B000AF0346FB80084B5A69FB88C3
:1022A8001340002B06D0054AFB885361FB8818466B
:1022B800FEF748FF00BF0837BD4680BD003C01401F
:1022C80080B586B002AF78607B68002B01D101230E
:1022D80001E17B681B68BB607B6893F89534DBB2CF
:1022E800002B06D17B68002283F89424786806F0D6
:1022F8007BFE7B68032283F89524BB68B3F1A04F6B
:1023080002D17B6800229A717B681B68184603F02B
:10231800A6FD7B6818687B681A7C8DF8002004335A
:102328000ECB03F085FC0346002B05D07B68022208
:1023380083F895240123CEE07B681B6800211846AA
:1023480003F09EFD0346002B05D07B68022283F82C
:1023580095240123BFE00023FB734AE0FA7B7968E8
:102368001346DB0013449B000B44153301221A70FB
:10237800FA7B79681346DB0013449B000B44143343
:10238800FA7B1A70FA7BFB7B98B279681346DB00FC
:1023980013449B000B442E3302461A80FA7B79685B
:1023A8001346DB0013449B000B44183300221A70B9
:1023B800FA7B79681346DB0013449B000B441C33FB
:1023C80000221A60FA7B79681346DB0013449B00ED
:1023D8000B44203300221A60FA7B79681346DB002D
:1023E80013449B000B44243300221A60FB7B013307
:1023F800FB737B681B79FA7B9A42AFD30023FB738C
:1024080044E0FA7B79681346DB0013449B000B44D5
:1024180003F2552300221A70FA7B79681346DB0011
:1024280013449B000B4403F51573FA7B1A70FA7B6F
:1024380079681346DB0013449B000B4403F51673BD
:1024480000221A70FA7B79681346DB0013449B005C
:102458000B4403F5177300221A60FA7B7968134658
:10246800DB0013449B000B4403F5187300221A6029
:10247800FA7B79681346DB0013449B000B4403F591
:10248800197300221A60FB7B0133FB737B681B798D
:10249800FA7B9A42B5D37B6818687B681A7C8DF8FA
:1024A800002004330ECB03F037FD0346002B05D084
:1024B8007B68022283F8952401230CE07B680022C4
:1024C8005A747B68012283F895247B681B68184638
:1024D80004F081FD002318461037BD4680BD80B545
:1024E80084B000AF78607B681B68FB607B6893F8FA
:1024F8009434012B01D1022322E07B68012283F866
:102508009424FB68DB6803F04003002B09D07B6848
:102518005B7B012B05D1FB689B6B43F48032FB6826
:102528009A637B681B68184603F088FC7B681B6805
:10253800184604F02FFD7B68002283F894240023BA
:1025480018461037BD4680BD90B58DB000AF786095
:102558007B681B683B623B6AFB617B681B681846AB
:1025680004F0EDFD0346002B40F08C847B681B686B
:10257800184604F051FD0346002B00F08284FB69E5
:1025880003F500639B681B0AC3F30D027B68C3F85D
:10259800D4247B681B68184604F03EFD034603F00C
:1025A8000203022B07D17B681B685A697B681B688A
:1025B80002F002025A617B681B68184604F02CFD81
:1025C800034603F01003102B61D17B681B689A69DE
:1025D8007B681B6822F010029A613B6A1B6ABB6128
:1025E800BB6903F00F021346DB0013449B0003F59D
:1025F80014737A68134404337B61BB6903F4F013E2
:10260800B3F5802F24D1BA6947F6F0731340002B35
:1026180035D07B69D968BB691B099BB2C3F30A0330
:102628009BB21A46386A04F063FB7B69DA68BB69B7
:102638001B09C3F30A031A447B69DA607B695A6988
:10264800BB691B09C3F30A031A447B695A6116E084
:10265800BB6903F4F013B3F5402F10D17B6803F284
:102668009C4308221946386A04F042FB7B695A6980
:10267800BB691B09C3F30A031A447B695A617B6867
:102688001B689A697B681B6842F010029A617B6834
:102698001B68184604F0C0FC034603F40023B3F596
:1026A800002F40F0A78000237B627B681B681846D8
:1026B80004F0C5FCB86299E0BB6A03F00103002B83
:1026C80000F08E807B681B687A6AD2B21146184681
:1026D80004F0E9FC38613B6903F00103002B0CD0DE
:1026E8007B6A5A01FB69134403F530631A460123D8
:1026F8009360796A786800F08BFE3B6903F0080301
:10270800002B0CD07B6A5A01FB69134403F5306334
:102718001A4608239360796A786800F061FF3B697C
:1027280003F01003002B08D07B6A5A01FB6913449D
:1027380003F530631A46102393603B6903F00203E4
:10274800002B30D03B6A5B6903F08003802B09D1F2
:10275800FB6903F500635B68FA6902F5006243F4FC
:10276800806353607A6A1346DB0013449B0003F5C9
:1027780014737A68134404337B617B69DB78012B1B
:1027880008D17B690022DA707B6ADBB21946786867
:1027980006F030FD7B6A5A01FB69134403F5306388
:1027A8001A46022393603B6903F02003002B08D0EC
:1027B8007B6A5A01FB69134403F530631A462023E8
:1027C80093603B6903F40053002B09D07B6A5A01DC
:1027D800FB69134403F530631A464FF400539360C2
:1027E8007B6A01337B62BB6A5B08BB62BB6A002BF6
:1027F8007FF462AF7B681B68184604F00DFC034643
:1028080003F48023B3F5802F40F0DB807B681B68DE
:10281800184604F02EFCB86200237B62CDE0BB6A48
:1028280003F00103002B00F0C2807B681B687A6A02
:10283800D2B21146184604F054FC38613B6903F0E3
:102848000103002B57D07B6A03F00F03012202FA21
:1028580003F3FB60FB6903F500635A6BFB68DB431A
:10286800F96901F5006113404B637B6A5A01FB6902
:10287800134403F510631A46012393607B689B7920
:10288800012B32D179687A6A1346DB0013449B0026
:102898000B442033196878687A6A1346DB001344BE
:1028A8009B0003441C331B68194478687A6A1346F2
:1028B800DB0013449B000344203319607B6A002B20
:1028C80013D179687A6A1346DB0013449B000B44E2
:1028D80024331B68002B08D17B6818687B6803F2D7
:1028E8009C431A46012104F05BFC7B6ADBB2194663
:1028F800786806F0FAFB3B6903F00803002B08D060
:102908007B6A5A01FB69134403F510631A460823CE
:1029180093603B6903F01003002B08D07B6A5A01CF
:10292800FB69134403F510631A46102393603B694F
:1029380003F04003002B08D07B6A5A01FB6913445B
:1029480003F510631A46402393603B6903F00203C2
:10295800002B23D0796A386A03F042FC7A6A13465E
:10296800DB0013449B0010337A68134404337B6103
:102978007B69DB78012B08D17B690022DA707B6ADE
:10298800DBB21946786806F047FC7B6A5A01FB6996
:10299800134403F510631A46022393603B6903F05E
:1029A8008003002B03D0796A786800F0A5FC7B6A65
:1029B80001337B62BB6A5B08BB62BB6A002B7FF496
:1029C8002EAF7B681B68184604F026FB034603F00D
:1029D8000043B3F1004F22D1FB6903F500635B6844
:1029E800FA6902F5006223F0010353607B6893F8EB
:1029F800CC34012B08D17B68002283F8CC24002139
:102A0800786800F08BFE02E0786806F0E5FB7B68EA
:102A18001B685A697B681B6802F000425A617B6830
:102A28001B68184604F0F8FA034603F40063B3F58C
:102A3800006F12D1FB6903F500639B6803F0010383
:102A4800012B02D1786806F0A1FB7B681B685A69E4
:102A58007B681B6802F400625A617B681B68184631
:102A680004F0DAFA034603F48053B3F5805F40F0CC
:102A7800B780FB6903F500635B68FA6902F50062D9
:102A880023F0010353607B681B681021184603F08C
:102A9800A7FB0023FB6246E0FB6A5A01FB6913446B
:102AA80003F510631A464FF67F339360FB6A5A01A9
:102AB800FB69134403F510631B68FA6A5101FA694C
:102AC8000A4402F5106223F400131360FB6A5A01EA
:102AD800FB69134403F530631A464FF67F3393605E
:102AE800FB6A5A01FB69134403F530631B68FA6AF1
:102AF8005101FA690A4402F5306223F400131360A5
:102B0800FB6A5A01FB69134403F530631B68FA6AD0
:102B18005101FA690A4402F5306243F00063136018
:102B2800FB6A0133FB627B681B791A46FB6A934296
:102B3800B2D3FB6903F50063DB69FA6902F5006249
:102B480043F00113D3617B68DB7B002B16D0FB6954
:102B580003F50063D3F88430FA6902F5006243F0A4
:102B68000B03C2F88430FB6903F500635B6CFA69F8
:102B780002F5006243F00B03536415E0FB6903F5AB
:102B880000635B69FA6902F5006243F4005343F09D
:102B98002B035361FB6903F500631B69FA6902F5AE
:102BA800006243F00B031361FB6903F500631B68C4
:102BB800FA6902F5006223F4FE6313607B68186803
:102BC8007B6899797B6803F29C431A4604F0E8FA1B
:102BD8007B681B685A697B681B6802F480525A61DB
:102BE8007B681B68184604F017FA034603F4005381
:102BF800B3F5005F23D17B681B68184604F0ADFA73
:102C08007B681B68184603F064FB03461A467B681A
:102C1800DA717B681C6801F005FA01467B68DB798C
:102C28001A46204603F068F8786806F086FA7B684A
:102C38001B685A697B681B6802F400525A617B68FA
:102C48001B68184604F0E8F9034603F00803082B4C
:102C58000AD1786806F063FA7B681B685A697B6852
:102C68001B6802F008025A617B681B68184604F06A
:102C7800D3F9034603F08003802B23D13B6A9B6979
:102C880023F080023B6A9A6101237B6214E0796831
:102C98007A6A1346DB0013449B000B4403F2572364
:102CA8001B78012B05D17B6ADBB21946786800F0E6
:102CB800F2FA7B6A01337B627B681B791A467B6A6E
:102CC8009342E4D37B681B68184604F0A5F90346D1
:102CD80003F48013B3F5801F3CD101237B622BE002
:102CE8007B6A5A01FB69134403F510631B68BB61D7
:102CF80079687A6A1346DB0013449B000B44183347
:102D08001B78012B15D1BB69002B12DA79687A6A16
:102D18001346DB0013449B000B44173301221A703F
:102D28007B6ADBB263F07F03DBB21946786800F098
:102D3800B2FA7B6A01337B627B681B791A467B6A2D
:102D48009342CDD37B681B685A697B681B6802F481
:102D580080125A617B681B68184604F05DF90346C7
:102D680003F40013B3F5001F56D101237B6245E03D
:102D78007B6A5A01FB69134403F530631B68BB6126
:102D880079687A6A1346DB0013449B000B4403F509
:102D980016731B78012B2ED1BB69002B2BDABB696C
:102DA8001A0C7B68D3F8D434534003F00103002B8A
:102DB80021D179687A6A1346DB0013449B000B44DF
:102DC80003F2572301221A703B6A9B6943F0800281
:102DD8003B6A9A613B6A5B6903F08003002B0AD166
:102DE800FB6903F500635B68FA6902F5006243F466
:102DF8000073536008E07B6A01337B627B681B7950
:102E08001A467B6A9342B3D37B681B685A697B680E
:102E18001B6802F400125A617B681B68184604F0AC
:102E2800FBF8034603F08043B3F1804F0AD178687A
:102E380006F004FA7B681B685A697B681B6802F015
:102E480080425A617B681B68184604F0E5F803461F
:102E580003F00403042B15D17B681B685B68BB6116
:102E6800BB6903F00403002B02D0786806F0F4F97C
:102E78007B681B6859687B681B68BA690A435A6093
:102E880000E000BF3437BD4690BD80B582B000AFCA
:102E980078600B46FB707B6893F89434012B01D162
:102EA800022312E07B68012283F894247B68FA7875
:102EB8005A747B681B68FA781146184604F044F87F
:102EC8007B68002283F89424002318460837BD46FF
:102ED80080BD80B584B000AF7860084611461A46B8
:102EE8000346FB700B463B801346BB700023FB7206
:102EF80097F90330002B0FDAFB7803F00F02134623
:102F0800DB0013449B0010337A6813440433FB60DE
:102F1800FB6801225A700FE0FB7803F00F0213469A
:102F2800DB0013449B0003F514737A6813440433DD
:102F3800FB60FB6800225A70FB7803F00F03DAB2DB
:102F4800FB681A703B88C3F30A02FB689A60FB6847
:102F5800BA781A71FB685B78002B04D0FB681B7881
:102F68001A46FB685A83BB78022B02D1FB68002201
:102F78005A717B6893F89434012B01D102230EE037
:102F88007B68012283F894247B681B68F9681846DB
:102F980003F0C4F97B68002283F89424FB7A18466E
:102FA8001037BD4680BD80B584B000AF78600B4651
:102FB800FB7097F90330002B0FDAFB7803F00F0250
:102FC8001346DB0013449B0010337A681344043320
:102FD800FB60FB6801225A700FE0FB7803F00F02D8
:102FE8001346DB0013449B0003F514737A681344FB
:102FF8000433FB60FB6800225A70FB7803F00F0370
:10300800DAB2FB681A707B6893F89434012B01D10B
:1030180002230EE07B68012283F894247B681B68F6
:10302800F968184603F002FA7B68002283F89424B2
:10303800002318461037BD4680BD80B586B000AF66
:10304800F8607A603B600B46FB72FB7A03F00F0274
:103058001346DB0013449B0003F51473FA6813440A
:1030680004337B617B697A68DA607B693A681A6144
:103078007B6900225A617B6900225A70FB7A03F04F
:103088000F03DAB27B691A70FB689B79012B02D1B6
:103098007A687B69DA61FB681868FB689B791A466D
:1030A800796903F09FFA002318461837BD4680BD9A
:1030B80080B586B000AFF8607A603B600B46FB7263
:1030C800FB7A03F00F021346DB0013449B00103316
:1030D800FA68134404337B617B697A68DA607B6938
:1030E8003A681A617B6900225A617B6901225A7029
:1030F800FB7A03F00F03DAB27B691A70FB689B79DD
:10310800012B02D17A687B69DA61FB681868FB6871
:103118009B791A46796903F065FA0023184618372F
:10312800BD4680BD80B584B000AF78600B46FB70AB
:10313800FB7803F00F037A681279934201D90123CF
:103148004FE097F90330002B0FDAFB7803F00F02FA
:103158001346DB0013449B0010337A68134404338E
:10316800FB60FB6801225A700DE0FA781346DB0019
:1031780013449B0003F514737A6813440433FB600B
:10318800FB6800225A70FB6801229A70FB7803F0F2
:103198000F03DAB2FB681A707B6893F89434012B3A
:1031A80001D102231DE07B68012283F894247B6807
:1031B8001B68F968184603F0F3FDFB7803F00F036A
:1031C800002B09D17B6818687B6899797B6803F2C2
:1031D8009C431A4603F0E4FF7B68002283F894249A
:1031E800002318461037BD4680BD80B584B000AFB7
:1031F80078600B46FB70FB7803F00F037A6812794E
:10320800934201D9012342E097F90330002B0FDAEA
:10321800FB7803F00F021346DB0013449B001033C6
:103228007A6813440433FB60FB6801225A700FE08C
:10323800FB7803F00F021346DB0013449B0003F5F1
:1032480014737A6813440433FB60FB6800225A70D5
:10325800FB6800229A70FB7803F00F03DAB2FB6870
:103268001A707B6893F89434012B01D102230EE085
:103278007B68012283F894247B681B68F9681846E8
:1032880003F0FCFD7B68002283F894240023184691
:103298001037BD4680BD80B584B000AF78600B465E
:1032A800FB7097F90330002B0CDAFB7803F00F0260
:1032B8001346DB0013449B0010337A68134404332D
:1032C800FB600CE0FB7803F00F021346DB001344AD
:1032D8009B0003F514737A6813440433FB607B681E
:1032E8001B68F968184603F01BFC0346FB72FB7A5F
:1032F80018461037BD4680BD80B58AB002AF7860E9
:1033080039607B681B687B617B693B613A6813465F
:10331800DB0013449B0010337A6813440433FB60CA
:10332800FB685A69FB681B699A4201D901236BE063
:10333800FB681A69FB685B69D31AFB61FB689B68C9
:10334800FA699A4202D9FB689B68FB61FB690333FF
:103358009B08BB612AE0FB681A69FB685B69D31AA2
:10336800FB61FB689B68FA699A4202D9FB689B6813
:10337800FB61FB6903339B08BB61FB68D9683B6849
:10338800DAB2FB6998B27B689B7900930346786947
:1033980003F070FCFB68DA68FB691A44FB68DA60C2
:1033A800FB685A69FB691A44FB685A613B685A0111
:1033B8003B69134403F510639B699BB2BA699A424F
:1033C80009D8FB685A69FB681B699A4203D2FB68F3
:1033D8001B69002BBFD1FB681A69FB685B699A42BD
:1033E80011D83B6803F00F03012202FA03F3BB6014
:1033F8003B6903F500635A6BBB68DB43396901F528
:10340800006113404B63002318462037BD4680BD3A
:1034180080B588B000AF786039607B681B68FB6155
:10342800FB69BB61FB693C3304331B687B613B6808
:103438005A01BB69134403F530639B683B617B68A1
:103448009B79012B7BD13B6903F00803002B15D036
:103458007B69614A934240F2B9803B6903F40043B7
:10346800002B00F0B3803B685A01BB69134403F595
:1034780030631A464FF400439360A7E03B6903F0BA
:103488002003002B09D03B685A01BB69134403F59C
:1034980030631A462023936098E03B6903F02803C1
:1034A800002B40F093807B694B4A93420FD93B69CC
:1034B80003F40043002B0AD03B685A01BB6913444C
:1034C80003F530631A464FF4004393607EE03A6890
:1034D8001346DB0013449B0003F514737A68134406
:1034E8000433FB60FB681A6A3B685901BB690B44EB
:1034F80003F530631B69C3F31203D21AFB685A61E0
:103508003B68002B14D1FB681B69002B09D17B6831
:1035180018687B6803F29C431A46012103F040FEB9
:1035280006E0FB68DA68FB685B691A44FB68DA60E6
:103538003B68DBB21946786805F0BCFD46E07B695C
:10354800264A934224D13B6903F40043002B0AD056
:103558003B685A01BB69134403F530631A464FF4BC
:103568000043936032E03B6903F02003002B08D04E
:103578003B685A01BB69134403F530631A4620239C
:1035880093603B68DBB21946786805F093FD1DE04F
:103598003B68002B14D179683A681346DB00134462
:1035A8009B000B4403F519731B68002B08D17B683B
:1035B80018687B6803F29C431A46002103F0F0FD6B
:1035C8003B68DBB21946786805F074FD002318469D
:1035D8002037BD4680BD00BF0A30544F0A31544FD2
:1035E80080B586B000AF786039607B681B687B6106
:1035F8007B693B617B693C3304331B68FB603B6838
:103608005A013B69134403F530639B68BB60FB6850
:10361800154A93420ED9BB6803F40043002B09D026
:103628003B685A013B69134403F530631A464FF46B
:1036380000439360786805F02BFDFB680A4A9342C3
:103648000CD97B689B79012B08D17B6818687B684B
:1036580003F29C431A46012103F0A2FD00231846F9
:103668001837BD4680BD00BF0A30544F80B485B0BE
:1036780000AF78600B46FB7013463B807B681B6885
:103688005B6ABB60FB78002B07D13B8819047B6819
:103698001B68BA680A439A6228E07B681B689B6AC1
:1036A8001B0CBA681344BB600023FB730DE07B68F6
:1036B8001A68FB7B40339B0013445B681B0CBA6899
:1036C8001344BB60FB7B0133FB73FA7BFB78013B44
:1036D8009A42ECD33B8818047B681968FB78013B55
:1036E800BA68024340339B000B445A6000231846D3
:1036F8001437BD465DF8047B704780B483B000AFD3
:1037080078600B467B807B681B687A885A62002346
:1037180018460C37BD465DF8047B704780B483B00B
:1037280000AF78600B46FB7000BF0C37BD465DF8F4
:10373800047B704780B483B000AF064B01221A6047
:10374800054B1B687B607B6800BF0C37BD465DF886
:10375800047B704720000E420070004080B586B0A0
:1037680000AF78607B68002B01D1012367E27B689A
:103778001B6803F00103002B75D0884B9B6803F08E
:103788000C03042B0CD0854B9B6803F00C03082B0F
:1037980012D1824B5B6803F48003B3F5800F0BD121
:1037A8007E4B1B6803F40033002B5BD07B685B689F
:1037B800002B57D1012342E27B685B68B3F5803F59
:1037C80006D1764B1B68754A43F4803313601DE0BD
:1037D8007B685B68B3F5A02F0CD1704B1B686F4AF0
:1037E80043F4802313606D4B1B686C4A43F48033A9
:1037F80013600BE0694B1B68684A23F4803313603D
:10380800664B1B68654A23F4802313607B685B68FA
:10381800002B13D0FEF744FA386108E0FEF740FAAF
:1038280002463B69D31A642B01D9032307E25B4B99
:103838001B6803F40033002BF0D014E0FEF730FAD5
:10384800386108E0FEF72CFA02463B69D31A642B6C
:1038580001D90323F3E1514B1B6803F40033002B18
:10386800F0D100E000BF7B681B6803F00203002B67
:1038780063D04A4B9B6803F00C03002B0BD0474BDB
:103888009B6803F00C03082B1CD1444B5B6803F4C2
:103898008003002B16D1414B1B6803F00203002B59
:1038A80005D07B68DB68012B01D00123C7E13B4BC6
:1038B8001B6823F0F8027B681B69DB003749134358
:1038C8000B603AE07B68DB68002B20D0344B012288
:1038D8001A60FEF7E5F9386108E0FEF7E1F90246FB
:1038E8003B69D31A022B01D90323A8E12B4B1B6890
:1038F80003F00203002BF0D0284B1B6823F0F802DA
:103908007B681B69DB00254913430B6015E0244BDA
:1039180000221A60FEF7C4F9386108E0FEF7C0F922
:1039280002463B69D31A022B01D9032387E11B4BBB
:103938001B6803F00203002BF0D17B681B6803F0BF
:103948000803002B36D07B685B69002B16D0154B1B
:1039580001221A60FEF7A4F9386108E0FEF7A0F921
:1039680002463B69D31A022B01D9032367E10B4BAB
:103978005B6F03F00203002BF0D01BE0094B002221
:103988001A60FEF78DF938610EE0FEF789F90246F4
:103998003B69D31A022B07D9032350E100380240B0
:1039A80000004742800E4742884B5B6F03F00203DA
:1039B800002BEAD17B681B6803F00403002B00F09E
:1039C80097800023FB75814B1B6C03F08053002B01
:1039D8000FD10023BB607D4B1B6C7C4A43F08053A6
:1039E80013647A4B1B6C03F08053BB60BB680123E4
:1039F800FB75774B1B6803F48073002B18D1744B4D
:103A08001B68734A43F480731360FEF749F9386101
:103A180008E0FEF745F902463B69D31A022B01D9A3
:103A280003230CE16A4B1B6803F48073002BF0D06E
:103A38007B689B68012B06D1644B1B6F634A43F07C
:103A4800010313671CE07B689B68052B0CD15F4B57
:103A58001B6F5E4A43F0040313675C4B1B6F5B4AA2
:103A680043F0010313670BE0584B1B6F574A23F0D1
:103A780001031367554B1B6F544A23F00403136764
:103A88007B689B68002B15D0FEF70AF938610AE0BD
:103A9800FEF706F902463B69D31A41F2883293428F
:103AA80001D90323CBE0494B1B6F03F00203002B22
:103AB800EED014E0FEF7F4F838610AE0FEF7F0F80B
:103AC80002463B69D31A41F28832934201D9032353
:103AD800B5E03E4B1B6F03F00203002BEED1FB7DDC
:103AE800012B05D1394B1B6C384A23F080531364E2
:103AF8007B689B69002B00F0A180344B9B6803F026
:103B08000C03082B5CD07B689B69022B41D1314B9D
:103B180000221A60FEF7C4F8386108E0FEF7C0F822
:103B280002463B69D31A022B01D9032387E0274BAE
:103B38001B6803F00073002BF0D17B68DA697B689F
:103B48001B6A1A437B685B6A9B011A437B689B6A02
:103B58005B08013B1B041A437B68DB6A1B061B4995
:103B680013434B601B4B01221A60FEF799F838612A
:103B780008E0FEF795F802463B69D31A022B01D9F3
:103B880003235CE0114B1B6803F00073002BF0D09B
:103B980054E0104B00221A60FEF782F8386108E002
:103BA800FEF77EF802463B69D31A022B01D903239C
:103BB80045E0064B1B6803F00073002BF0D13DE095
:103BC8007B689B69012B07D1012338E0003802404C
:103BD80000700040600047421B4B5B68FB607B68DD
:103BE8009B69012B28D0FB6803F480027B68DB69A2
:103BF8009A4221D1FB6803F03F027B681B6A9A4214
:103C08001AD1FA6847F6C07313407A68526A92016B
:103C1800934211D1FB6803F440327B689B6A5B08CE
:103C2800013B1B049A4207D1FB6803F070627B6872
:103C3800DB6A1B069A4201D0012300E000231846E4
:103C48001837BD4680BD00BF0038024080B584B03B
:103C580000AF786039607B68002B01D10123CCE08C
:103C6800684B1B6803F007033A689A420CD9654B06
:103C78003A68D2B21A70634B1B6803F007033A68BC
:103C88009A4201D00123B8E07B681B6803F0020365
:103C9800002B20D07B681B6803F00403002B05D0A1
:103CA800594B9B68584A43F4E05393607B681B6800
:103CB80003F00803002B05D0534B9B68524A43F48A
:103CC80060439360504B9B6823F0F0027B689B68CD
:103CD8004D4913438B607B681B6803F00103002B7D
:103CE80044D07B685B68012B07D1474B1B6803F402
:103CF8000033002B19D101237FE07B685B68022B1E
:103D080003D07B685B68032B07D13F4B1B6803F02C
:103D18000073002B09D101236FE03B4B1B6803F0B4
:103D28000203002B01D1012367E0374B9B6823F086
:103D380003027B685B68344913438B60FDF7B0FF6F
:103D4800F8600AE0FDF7ACFF0246FB68D31A41F2BF
:103D58008832934201D903234FE02B4B9B6803F031
:103D68000C027B685B689B009A42EBD1254B1B6871
:103D780003F007033A689A420CD2224B3A68D2B24F
:103D88001A70204B1B6803F007033A689A4201D067
:103D9800012332E07B681B6803F00403002B08D082
:103DA800194B9B6823F4E0527B68DB681649134380
:103DB8008B607B681B6803F00803002B09D0124B4B
:103DC8009B6823F460427B681B69DB000E49134340
:103DD8008B6000F021F802460B4B9B681B0903F02F
:103DE8000F030A49CB5C22FA03F3094A1360094B13
:103DF8001B681846FDF710FF002318461037BD460C
:103E080080BD00BF003C024000380240BC9600085C
:103E180004000020080000202DE9B04F94B000AF46
:103E280000237B640023FB6400233B640023BB6402
:103E3800794B9B6803F00C03082B0DD0082B00F27C
:103E4800E180002B02D0042B03D0DBE0734BBB6472
:103E5800DBE0734BBB64D8E06F4B5B6803F03F0358
:103E68007B646D4B5B6803F48003002B63D06A4B63
:103E78005B689B090022BB63FA63BB6BC3F308034F
:103E88003B6300237B63D7E90C4522462B464FF062
:103E980000004FF00001590141EAD2615001024689
:103EA8000B462146511A3961294663EB01037B61B0
:103EB8004FF000024FF00003D7E904AB59468B01DD
:103EC800514643EA916351468A015146B2EB0108D3
:103ED800594663EB01094FF000024FF000034FEA27
:103EE800C90343EA58734FEAC802904699462346E5
:103EF80018EB0303BB602B4649EB0303FB604FF051
:103F080000024FF00003D7E9024529464B0221463B
:103F180043EAD15321464A02104619467B6C0022D7
:103F2800BB62FA62D7E90A23FCF740FD02460B465A
:103F38001346FB6458E0384B5B689B09002218461F
:103F48001146C0F308033B6200237B62D7E9088966
:103F580042464B464FF000004FF00001590141EA3C
:103F6800D261500102460B464146B2EB010A49466E
:103F780063EB010B4FF000024FF000034FEA8B1385
:103F880043EA9A634FEA8A12B2EB0A0463EB0B0521
:103F98004FF000024FF00003EB0043EA5473E200D5
:103FA80014461D464346E3183B604B4645EB030366
:103FB8007B604FF000024FF00003D7E90045294627
:103FC8008B02214643EA915321468A02104619463C
:103FD8007B6C0022BB61FA61D7E90623FCF7E6FC9B
:103FE80002460B461346FB640B4B5B681B0C03F045
:103FF800030301335B003B64FA6C3B6CB2FBF3F3E5
:10400800BB6402E0054BBB6400BFBB6C184650376D
:10401800BD46BDE8B08F00BF003802400024F40060
:1040280000127A0080B400AF034B1B681846BD46E7
:104038005DF8047B704700BF0400002080B500AF26
:10404800FFF7F0FF0246054B9B689B0A03F0070346
:104058000349CB5C22FA03F3184680BD00380240BE
:10406800CC96000880B500AFFFF7DCFF0246054B91
:104078009B685B0B03F007030349CB5C22FA03F34D
:10408800184680BD00380240CC96000880B586B03E
:1040980000AF786000237B6100233B617B681B686D
:1040A80003F00103002B05D17B681B6803F00403B0
:1040B800002B35D0624B00221A60FDF7F1FD7861C4
:1040C80008E0FDF7EDFD02467B69D31A022B01D902
:1040D8000323B0E05B4B1B6803F00063002BF0D1B7
:1040E8007B685B689A017B689B681B07554913438B
:1040F800C1F88430524B01221A60FDF7D1FD786176
:1041080008E0FDF7CDFD02467B69D31A022B01D9E1
:10411800032390E04B4B1B6803F00063002BF0D0A7
:104128007B681B6803F00203002B00F083800023E8
:10413800FB60444B1B6C434A43F080531364414B70
:104148001B6C03F08053FB60FB683F4B1B683E4AC7
:1041580043F480731360FDF7A3FD786108E0FDF771
:104168009FFD02467B69D31A022B01D9032362E023
:10417800354B1B6803F48073002BF0D0314B1B6F59
:1041880003F440733B613B69002B2FD07B68DB68ED
:1041980003F440733A699A4228D02A4B1B6F23F4E0
:1041A80040733B61294B01221A60284B00221A6098
:1041B800244A3B691367234B1B6F03F00103012B50
:1041C80014D1FDF76DFD78610AE0FDF769FD02463F
:1041D8007B69D31A41F28832934201D903232AE03A
:1041E800184B1B6F03F00203002BEED07B68DB68D3
:1041F80003F44073B3F5407F0DD1124B9B6823F451
:10420800F8127B68DB6823F0704323F440730D4990
:1042180013438B6005E00B4B9B680A4A23F4F813A1
:104228009360084B1A6F7B68DB68C3F30B0305497F
:1042380013430B67002318461837BD4680BD00BFDF
:10424800680047420038024000700040400E474274
:1042580080B584B000AF78607B68002B01D1012362
:1042680073E07B685B7FDBB2002B05D17B680022A3
:104278001A777868FDF766FB7B6802225A777B68B5
:104288001B68DB6803F01003102B55D07B681B6894
:10429800CA225A627B681B6853225A62786800F007
:1042A80075FB0346FB73FB7B002B2CD17B681B68DB
:1042B8009B687A68126823F4E00323F04003936054
:1042C8007B681B6899687B685A687B681B691A4316
:1042D8007B685B691A437B681B680A439A607B6842
:1042E8001B687A68D2681A617B681B6819697B68E1
:1042F8009B681A047B681B680A431A61786800F097
:104308007CFB0346FB73FB7B002B10D17B681B688F
:104318001A6C7B681B6822F480221A647B681B680D
:10432800196C7B689A697B681B680A431A647B6806
:104338001B68FF225A6201E00023FB73FB7B002B02
:1043480002D17B6801225A77FB7B18461037BD469D
:1043580080BD90B587B000AFF860B9607A6000237F
:104368007B61FB681B7F012B01D1022387E0FB687F
:1043780001221A77FB6802225A777B68002B26D124
:10438800FB681B689B6803F04003002B02D1BB68E5
:104398000022DA70BB681B78184600F053FB03460E
:1043A8001C04BB685B78184600F04CFB03461B02F4
:1043B8001C43BB689B78184600F044FB034644EA5C
:1043C8000302BB68DB789B0513437B6118E0FB683D
:1043D8001B689B6803F04003002B02D1BB680022D6
:1043E800DA70BB681B781A04BB685B781B0213433E
:1043F800BA6892781A43BB68DB789B0513437B61E4
:10440800FB681B68CA225A62FB681B6853225A62FF
:10441800F86800F0BBFA0346FB74FB7C002B20D144
:10442800FB681A687B6903F07F3323F0FE4313604F
:10443800FB681B689A68FB681B6822F480229A60F4
:10444800FB681B689968BB68DA68BB681B691A4314
:10445800FB681B680A439A60F86800F0CEFA0346C6
:10446800FB74FB7C002B02D1FB6801225A77FB68A6
:104478001B68FF225A62FB6800221A77FB7C1846E9
:104488001C37BD4690BD90B587B000AFF860B960E5
:104498007A6000237B61FB681B7F012B01D102231B
:1044A80071E0FB6801221A77FB6802225A777B6861
:1044B800002B0ED1BB685B7803F01003002B08D0EB
:1044C800BB685B7823F01003DBB20A33DAB2BB684F
:1044D8005A707B68002B1CD1BB68DB78184600F04B
:1044E800B1FA03461C04BB685B78184600F0AAFAC8
:1044F80003461B021C43BB689B78184600F0A2FACF
:10450800034644EA0302BB681B785B0313437B61E1
:104518000EE0BB68DB781A04BB685B781B021343A8
:10452800BA6892781A43BB681B785B0313437B61B4
:10453800FB681B68CA225A62FB681B6853225A62CE
:10454800F86800F023FA0346FB74FB7C002B0CD1BF
:10455800FB681A687B6923F07F4323F0C00353602C
:10456800F86800F04AFA0346FB74FB7C002B02D182
:10457800FB6801225A77FB681B68FF225A62FB68B6
:1045880000221A77FB7C18461C37BD4690BD80B5C3
:1045980086B000AFF860B9607A6000237B61FB6881
:1045A8001B685B6823F07F4323F0C0037B617B6952
:1045B8001B0CDAB2BB68DA707B691B0ADBB203F04A
:1045C8001F03DAB2BB685A707B69DBB203F03F03A2
:1045D800DAB2BB689A707B695B0BDBB203F0070346
:1045E800DAB2BB681A707B68002B1AD1BB68DB781B
:1045F800184600F045FA03461A46BB68DA70BB68ED
:104608005B78184600F03CFA03461A46BB685A70B5
:10461800BB689B78184600F033FA03461A46BB6815
:104628009A70002318461837BD4680BD90B589B0EA
:1046380000AFF860B9607A609B4B1B689B4AA2FB8D
:104648000323DB0A4FF47A7202FB03F37B61002336
:10465800FB610023BB61FB681B7F012B01D1022397
:104668001EE1FB6801221A77FB6802225A777B68F1
:10467800002B37D1FB681B689B6803F04003002BB5
:1046880002D1BB680022DA70BB681B78184600F0BC
:10469800D9F903461C04BB685B78184600F0D2F9C8
:1046A80003461B021C43BB689B78184600F0CAF9F6
:1046B800034644EA0302BB68DB789B0542EA03042D
:1046C800BB6893F82030184600F0BCF903461B0677
:1046D80044EA0302BB68DB691A43BB685B6913439E
:1046E800FB6123E0FB681B689B6803F04003002B19
:1046F80002D1BB680022DA70BB681B781A04BB6859
:104708005B781B021343BA6892781A43BB68DB785C
:104718009B051A43BB6893F820301B061A43BB68F5
:10472800DB691A43BB685B691343FB61BB685A6862
:10473800BB689B691343BB61FB681B68CA225A624A
:10474800FB681B6853225A62BB685B6AB3F5807FBB
:1047580042D1FB681B689A68FB681B6822F4807268
:104768009A60FB681B68DB68DAB2FB681B6862F456
:10477800C072DA607B69013B7B617B69002B0BD1DE
:10478800FB681B68FF225A62FB6803225A77FB68A2
:1047980000221A77032383E0FB681B68DB6803F0B9
:1047A8000103002BE6D0FB681B68FA69DA61FB6835
:1047B8001B68BA695A64FB681B689A68FB681B68BF
:1047C80042F480729A60FB681B689A68FB681B68F1
:1047D80042F480529A604CE0FB681B689A68FB6858
:1047E8001B6822F400729A60FB681B68DB68DAB207
:1047F800FB681B6862F42072DA602B4B1B682B4A3B
:10480800A2FB0323DB0A4FF47A7202FB03F37B61FA
:104818007B69013B7B617B69002B0BD1FB681B68C3
:10482800FF225A62FB6803225A77FB6800221A7734
:10483800032335E0FB681B68DB6803F00203002BE9
:10484800E6D0FB681B68FA691A62FB681B68BA69DC
:104858009A64FB681B689A68FB681B6842F40072DC
:104868009A60FB681B689A68FB681B6842F40052F0
:104878009A600F4B1B680E4A43F4003313600C4BCD
:104888009B680B4A43F400339360FB681B68FF2264
:104898005A62FB6801225A77FB6800221A770023C4
:1048A80018462437BD4690BD04000020D34D621041
:1048B800003C014080B582B000AF78601F4B4FF4D8
:1048C80000325A617B681B689B6803F48053002B95
:1048D80012D07B681B68DB6803F48073002B0BD055
:1048E8007B681B68DB68DAB27B681B6862F4C0729D
:1048F800DA607868FCF7EEFF7B681B689B6803F456
:104908000053002B12D07B681B68DB6803F400732C
:10491800002B0BD07B681B68DB68DAB27B681B68EE
:1049280062F42072DA60786800F0E2F87B680122AD
:104938005A7700BF0837BD4680BD00BF003C014024
:1049480080B584B000AF78600023FB607B681B688B
:104958000D4ADA60FDF7A4F9F86009E0FDF7A0F95F
:104968000246FB68D31AB3F57A7F01D9032307E01F
:104978007B681B68DB6803F02003002BEED0002364
:1049880018461037BD4680BD5F7F010080B584B0F2
:1049980000AF78600023BB600023FB737B681B6853
:1049A800DB6803F04003002B22D17B681B68DA68C0
:1049B8007B681B6842F08002DA60FDF771F9B86025
:1049C8000CE0FDF76DF90246BB68D31AB3F57A7FA0
:1049D80004D97B6804225A770123FB737B681B6820
:1049E800DB6803F04003002B02D1FB7B012BE8D1ED
:1049F800FB7B18461037BD4680BD80B584B000AF3C
:104A080078600023FB737B681B68DA687B681B6827
:104A180022F08002DA607B681B689B6803F0200341
:104A2800002B0AD17868FFF78BFF0346002B04D0D0
:104A38007B6804225A770123FB73FB7B18461037E7
:104A4800BD4680BD80B485B000AF0346FB7100232E
:104A5800FB6005E0FB680133FB60FB790A3BFB71F7
:104A6800FB79092BF6D8FB68DBB21B01DAB2FB79BC
:104A78001343DBB218461437BD465DF8047B704714
:104A880080B485B000AF0346FB710023FB60FB795F
:104A98001B09DBB21A4613469B0013445B00FB60FC
:104AA800FB68DAB2FB7903F00F03DBB21344DBB225
:104AB80018461437BD465DF8047B704780B487B04C
:104AC80000AFF860B9607A6000237B61FB681B68FF
:104AD80050337B61BB689B007A6913447B617B69B7
:104AE8007A681A6000BF1C37BD465DF8047B7047C2
:104AF80080B483B000AF786000BF0C37BD465DF866
:104B0800047B704780B582B000AF78607B68002B6B
:104B180001D101237BE07B685B6A002B08D17B68AD
:104B28005B68B3F5827F09D07B680022DA6105E013
:104B38007B6800221A617B6800225A617B68002228
:104B48009A627B6893F85130DBB2002B06D17B6800
:104B5800002283F850207868FCF726FF7B68022241
:104B680083F851207B681B681A687B681B6822F0F1
:104B780040021A607B685B6803F482727B689B68FA
:104B880003F404431A437B68DB6803F400631A43A5
:104B98007B681B6903F002031A437B685B6903F0B7
:104BA80001031A437B689B6903F400731A437B680B
:104BB800DB6903F038031A437B681B6A03F0800340
:104BC80042EA03017B689B6A03F400527B681B6816
:104BD8000A431A607B689B691B0C03F004017B681D
:104BE8005B6A03F010027B681B680A435A607B68A3
:104BF8001B68DA697B681B6822F40062DA617B68EB
:104C080000225A657B68012283F851200023184648
:104C18000837BD4680BD80B588B000AFF860B96080
:104C28003B601346FB80FDF73BF8F861FB887B830C
:104C3800FB6893F85130DBB2012B01D002232AE143
:104C4800BB68002B02D0FB88002B01D1012322E195
:104C5800FB6893F85030012B01D102231BE1FB685C
:104C6800012283F85020FB68032283F85120FB6857
:104C780000225A65FB68BA681A63FB68FA889A8644
:104C8800FB68FA88DA86FB6800229A63FB680022D0
:104C98009A87FB680022DA87FB6800225A64FB685F
:104CA80000221A64FB689B68B3F5004F0FD1FB68BC
:104CB8001B681A68FB681B6822F040021A60FB68D0
:104CC8001B681A68FB681B6842F480421A60FB681C
:104CD8001B681B6803F04003402B07D0FB681B6868
:104CE8001A68FB681B6842F040021A60FB68DB68C0
:104CF800B3F5006F52D1FB685B68002B02D07B8B49
:104D0800012B45D1FB681B6B1A88FB681B68DA60AE
:104D1800FB681B6B9A1CFB681A63FB68DB8E9BB2F3
:104D2800013B9AB2FB68DA8632E0FB681B689B6835
:104D380003F00203022B12D1FB681B6B1A88FB6875
:104D48001B68DA60FB681B6B9A1CFB681A63FB68BC
:104D5800DB8E9BB2013B9AB2FB68DA8618E0FCF75F
:104D68009FFF0246FB69D31A3A689A4203D83B6808
:104D7800B3F1FF3F02D13B68002B09D1FB68012248
:104D880083F85120FB68002283F85020032382E037
:104D9800FB68DB8E9BB2002BC7D153E0FB685B68D6
:104DA800002B02D07B8B012B47D1FB681A6BFB6869
:104DB8001B680C3312781A70FB681B6B5A1CFB6853
:104DC8001A63FB68DB8E9BB2013B9AB2FB68DA86FA
:104DD80033E0FB681B689B6803F00203022B13D1C6
:104DE800FB681A6BFB681B680C3312781A70FB6837
:104DF8001B6B5A1CFB681A63FB68DB8E9BB2013B7A
:104E08009AB2FB68DA8618E0FCF74AFF0246FB69AB
:104E1800D31A3A689A4203D83B68B3F1FF3F02D1EC
:104E28003B68002B09D1FB68012283F85120FB68FD
:104E3800002283F8502003232DE0FB68DB8E9BB211
:104E4800002BC6D1FA693968F86800F0D9FB034627
:104E5800002B02D0FB6820225A65FB689B68002B58
:104E68000AD100237B61FB681B68DB687B61FB68F8
:104E78001B689B687B617B69FB68012283F8512072
:104E8800FB68002283F85020FB685B6D002B01D083
:104E9800012300E0002318462037BD4680BD80B5B9
:104EA80088B002AFF860B9603B601346FB80FB68CE
:104EB80093F85130DBB2012B01D0022304E1BB6827
:104EC800002B02D0FB88002B01D10123FCE0FB68FA
:104ED8005B68B3F5827F12D1FB689B68002B0ED10B
:104EE800FB68042283F85120FA883B680093134634
:104EF800BA68B968F86800F0EBF80346E4E0FCF734
:104F0800CFFE7861FB6893F85030012B01D1022362
:104F1800DAE0FB68012283F85020FB68042283F85A
:104F28005120FB6800225A65FB68BA689A63FB68DF
:104F3800FA889A87FB68FA88DA87FB6800221A637E
:104F4800FB6800229A86FB680022DA86FB6800224A
:104F58001A64FB6800225A64FB689B68B3F5004F2B
:104F68000FD1FB681B681A68FB681B6822F04002B7
:104F78001A60FB681B681A68FB681B6822F4804289
:104F88001A60FB681B681B6803F04003402B07D0BE
:104F9800FB681B681A68FB681B6842F040021A60CD
:104FA800FB68DB68002B70D135E0FB681B689B68E9
:104FB80003F00103012B15D1FB681B6803F10C02F8
:104FC800FB689B6B1278D2B21A70FB689B6B5A1CF9
:104FD800FB689A63FB68DB8F9BB2013B9AB2FB6864
:104FE800DA8718E0FCF75CFE02467B69D31A3A6858
:104FF8009A4203D83B68B3F1FF3F02D13B68002BCC
:1050080009D1FB68012283F85120FB68002283F84C
:105018005020032358E0FB68DB8F9BB2002BC4D1E0
:1050280038E0FB681B689B6803F00103012B13D170
:10503800FB681B68DA68FB689B6B92B21A80FB6896
:105048009B6B9A1CFB689A63FB68DB8F9BB2013BE6
:105058009AB2FB68DA8718E0FCF722FE02467B6901
:10506800D31A3A689A4203D83B68B3F1FF3F02D19A
:105078003B68002B09D1FB68012283F85120FB68AB
:10508800002283F8502003231EE0FB68DB8F9BB2CD
:10509800002BC6D17A693968F86800F04BFA0346E4
:1050A800002B02D0FB6820225A65FB68012283F896
:1050B8005120FB68002283F85020FB685B6D002BB1
:1050C80001D0012300E0002318461837BD4680BDF3
:1050D80080B58AB000AFF860B9607A607B80012340
:1050E8007B62FCF7DDFD3862FB6893F85130FB7793
:1050F800FB685B68BB617B88FB82FB7F012B0CD064
:10510800BB69B3F5827F06D1FB689B68002B02D18F
:10511800FB7F042B01D002237FE1BB68002B05D065
:105128007B68002B02D07B88002B01D1012374E11E
:10513800FB6893F85030012B01D102236DE1FB6825
:10514800012283F85020FB6893F85130DBB2042B1E
:1051580003D0FB68052283F85120FB6800225A65BA
:10516800FB687A689A63FB687A88DA87FB687A88CA
:105178009A87FB68BA681A63FB687A88DA86FB68DC
:105188007A889A86FB6800221A64FB6800225A64AF
:10519800FB681B681B6803F04003402B07D0FB68C3
:1051A8001B681A68FB681B6842F040021A60FB68BB
:1051B800DB68B3F5006F7ED1FB685B68002B02D01B
:1051C800FB8A012B6CD1FB681B6B1A88FB681B6878
:1051D800DA60FB681B6B9A1CFB681A63FB68DB8E42
:1051E8009BB2013B9AB2FB68DA8659E0FB681B6800
:1051F8009B6803F00203022B1BD1FB68DB8E9BB27A
:10520800002B16D07B6A012B13D1FB681B6B1A8805
:10521800FB681B68DA60FB681B6B9A1CFB681A63E7
:10522800FB68DB8E9BB2013B9AB2FB68DA860023EF
:105238007B62FB681B689B6803F00103012B19D193
:10524800FB68DB8F9BB2002B14D0FB681B68DA6805
:10525800FB689B6B92B21A80FB689B6B9A1CFB687D
:105268009A63FB68DB8F9BB2013B9AB2FB68DA87D3
:1052780001237B62FCF714FD02463B6AD31A3A6BA2
:105288009A420DD83B6BB3F1FF3F09D0FB6801226E
:1052980083F85120FB68002283F850200323BCE0E8
:1052A800FB68DB8E9BB2002BA0D1FB68DB8F9BB227
:1052B800002B9BD182E0FB685B68002B02D0FB8A45
:1052C800012B71D1FB681A6BFB681B680C331278D1
:1052D8001A70FB681B6B5A1CFB681A63FB68DB8E31
:1052E8009BB2013B9AB2FB68DA865DE0FB681B68FB
:1052F8009B6803F00203022B1CD1FB68DB8E9BB278
:10530800002B17D07B6A012B14D1FB681A6BFB6842
:105318001B680C3312781A70FB681B6B5A1CFB68ED
:105328001A63FB68DB8E9BB2013B9AB2FB68DA8694
:1053380000237B62FB681B689B6803F00103012B59
:1053480019D1FB68DB8F9BB2002B14D0FB681B685C
:10535800DA68FB689B6BD2B21A70FB689B6B5A1CAD
:10536800FB689A63FB68DB8F9BB2013B9AB2FB68D0
:10537800DA8701237B62FCF793FC02463B6AD31A67
:105388003A6B9A4203D83B6BB3F1FF3F02D13B6BB8
:10539800002B09D1FB68012283F85120FB68002209
:1053A80083F85020032338E0FB68DB8E9BB2002B88
:1053B8009CD1FB68DB8F9BB2002B97D13A6A396B83
:1053C800F86800F01DF90346002B08D0FB6820227E
:1053D8005A65FB68002283F8502001231DE0FB6812
:1053E8009B68002B0AD100233B61FB681B68DB68C4
:1053F8003B61FB681B689B683B613B69FB6801225A
:1054080083F85120FB68002283F85020FB685B6D0D
:10541800002B01D0012300E0002318462837BD46A1
:1054280080BD000080B588B000AFF860B9603B600F
:105438001346FB71FCF734FC0246BB6A9B1A3A68B8
:105448001344FB61FCF72CFCB861394B1B685B010A
:105458001B0DFA6902FB03F37B6155E03B68B3F16E
:10546800FF3F51D0FCF71CFC0246BB69D31AFA690E
:105478009A4202D9FB69002B3DD1FB681B685A6828
:10548800FB681B6822F0E0025A60FB685B68B3F5B2
:10549800827F11D1FB689B68B3F5004F04D0FB688D
:1054A8009B68B3F5806F07D1FB681B681A68FB68B7
:1054B8001B6822F040021A60FB689B6AB3F5005F24
:1054C8000FD1FB681B681A68FB681B6822F400523E
:1054D8001A60FB681B681A68FB681B6842F4005274
:1054E8001A60FB68012283F85120FB68002283F8C8
:1054F8005020032318E07B69002B02D10023FB61B5
:1055080002E07B69013B7B61FB681B689A68BB68AA
:105518001340BA689A420CBF01230023DBB21A4633
:10552800FB799A429AD1002318462037BD4680BDA0
:105538000400002080B586B002AFF860B9607A60D8
:10554800FB685B68B3F5827F11D1FB689B68B3F594
:10555800004F04D0FB689B68B3F5806F07D1FB68E8
:105568001B681A68FB681B6822F040021A60FB6817
:105578005B68B3F5827F2AD1FB689B68B3F5806FBF
:1055880012D07B680093BB6800228021F868FFF77F
:1055980049FF0346002B2DD0FB685B6D43F02002CA
:1055A800FB685A65032326E07B680093BB680022EA
:1055B8000121F868FFF736FF0346002B1AD0FB6875
:1055C8005B6D43F02002FB685A65032313E07B6898
:1055D8000093BB6800220121F868FFF723FF034608
:1055E800002B07D0FB685B6D43F02002FB685A650F
:1055F800032300E0002318461037BD4680BD000095
:1056080080B588B002AFF860B9607A607B680093B3
:10561800BB6801220221F868FFF704FF0346002B4C
:1056280007D0FB685B6D43F02002FB685A650323D3
:1056380032E01B4B1B681B4AA2FB03235B0D4FF494
:105648007A7202FB03F37B61FB685B68B3F5827FC8
:1056580012D17B680093BB6800228021F868FFF7AD
:10566800E1FE0346002B16D0FB685B6D43F0200279
:10567800FB685A6503230FE07B69002B0AD07B691E
:10568800013B7B61FB681B689B6803F08003802BF0
:10569800F2D000E000BF002318461837BD4680BD91
:1056A80004000020819F5E1680B582B000AF78604C
:1056B8007B68002B01D1012342E07B6893F84130DD
:1056C800DBB2002B06D17B68002283F84020786883
:1056D800FCF7B2F97B68242283F841207B681B68B9
:1056E800DA687B681B6822F40052DA60786800F098
:1056F8002BF87B681B681A697B681B6822F4904248
:105708001A617B681B685A697B681B6822F02A0249
:105718005A617B681B68DA687B681B6842F4005230
:10572800DA607B6800225A647B68202283F8412073
:105738007B68202283F842207B6800225A6300237A
:1057480018460837BD4680BD2DE9B04FC0B000AF40
:10575800C7F8F400D7F8F4301B681B6923F44050ED
:10576800D7F8F430D968D7F8F4301A6840EA01035A
:105778001361D7F8F4309A68D7F8F4301B691A43E4
:10578800D7F8F4305B691A43D7F8F430DB69134370
:10579800C7F8F830D7F8F4301B68DB6823F41641F3
:1057A80021F00C01D7F8F4301A68D7F8F8300B4319
:1057B800D360D7F8F4301B685B6923F44070D7F8DE
:1057C800F4309969D7F8F4301A6840EA0103536154
:1057D800D7F8F4301A688F4B9A4205D0D7F8F430CE
:1057E8001A688D4B9A4204D1FEF73CFCC7F8FC00BE
:1057F80003E0FEF723FCC7F8FC00D7F8F430DB69B8
:10580800B3F5004F40F00C81D7F8FC300022C7F800
:10581800E830C7F8EC20D7E93A4522462B469118DC
:10582800B9655B41FB65D7E91623214612EB0108F0
:10583800294643EB01094FF000024FF000034FEAFD
:10584800C90343EA58734FEAC8029046994623466B
:1058580018EB0303C7F8E0302B4649EB0303C7F8FE
:10586800E430D7F8F4305B680022C7F8D830C7F8BE
:10587800DC20D7E936120B46DB183B65134642EBB2
:1058880003037B65D7E91423D7E93801FBF78EF8C2
:1058980002460B46614BA3FB02235B091C01D7F8A8
:1058A800FC300022C7F8D030C7F8D420D7E93489B3
:1058B80042464B469118B9645B41FB64D7E9122311
:1058C800414612EB010A494643EB010B4FF0000237
:1058D8004FF000034FEACB0343EA5A734FEACA0278
:1058E80092469B4643461AEB0303C7F8C8304B461B
:1058F8004BEB0303C7F8CC30D7F8F4305B680022D1
:10590800C7F8C030C7F8C420D7E930120B46DB18F7
:105918003B64134642EB03037B64D7E91023D7E9C2
:105928003201FBF743F802460B4611463B4BA3FBFB
:1059380001235B09642202FB03F3CB1ADB0003F1AA
:105948003202364BA3FB02235B095B0003F4F873B6
:105958001C44D7F8FC300022C7F8B830C7F8BC2080
:10596800D7E92E8942464B469118B9635B41FB63E0
:10597800D7E90E2341465118396349464B417B63A9
:105988004FF000024FF00003D7E90CAB5946CB00AB
:10599800514643EA51735146CA0010461946034618
:1059A80042469B18C7F8B0304B460A4642EB030301
:1059B800C7F8B430D7F8F4305B680022C7F8A830CD
:1059C800C7F8AC20D7E92A120B46DB18BB6213468E
:1059D80042EB0303FB62D7E90A23D7E92C01FAF764
:1059E800E5FF02460B460D4BA3FB02135B0964213E
:1059F80001FB03F3D31ADB003233084AA2FB03236B
:105A08005B0903F00702D7F8F4301B6822449A6058
:105A180006E100BF00100140001401401F85EB5152
:105A2800D7F8FC300022C7F8A030C7F8A420D7E97F
:105A3800288942464B46911839625B417B62D7E917
:105A4800082341465418494643EB01054FF000022C
:105A58004FF00003EB0043EA5473E20014461D467E
:105A68004346E318C7F898304B4645EB0303C7F89D
:105A78009C30D7F8F4305B680022C7F89030C7F83C
:105A880094204FF000024FF00003D7E9244529463F
:105A98008B00214643EA917321468A00D7E9260103
:105AA800FAF784FF02460B46604BA3FB02235B090F
:105AB8001C01D7F8FC300022C7F88830C7F88C20C2
:105AC800D7E9228942464B469118B9615B41FB618F
